:100000000C946D010C94A4110C9479110C944E1164
:100010000C9423110C94F8100C94CD100C94A21095
:100020000C9477100C9497010C949A130C949701EC
:100030000C9497010C9497010C9497010C949701E0
:100040000C942D100C9497010C9497010C9497012B
:100050000C9497010C9497010C9497010C949701C0
:100060000C9497010C9497010C9497010C949701B0
:100070000C9497010C94FF120C9497010C94970127
:100080000C9497010C94CF110C9497013F0300003E
:10009000000000120D0000000000000101C08000FF
:1000A000000000000000000000060000000000004A
:1000B0000000000000000000000000000000000040
:1000C000000000000000FF0300000000000000002E
:1000D0000000000000000000000000000000000020
:1000E0000000000000000000000000000000000010
:1000F00000000000000000000000000002001400EA
:10010000030014000400140005001400060014008D
:100110000700140008001400090014000A0014006D
:100120000B0010000C0010000D0010000E0010005D
:100130000F0010001000100011001000120010003D
:100140001300100014001400150014000100140026
:10015000010014000100140001001400010014004B
:1001600000801F0000811F00FF000000FF00000052
:10017000FF000000FF000000FF000000FF00000083
:10018000FF000000FF000000FF000000FF00000073
:10019000FF000000FF000000FF0000000000000062
:1001A000000000000000000000000000000000004F
:1001B0000000000000000000007000740078007C67
:1001C000008000840088008C009000940098009CBF
:1001D00000A000A400A800AC00B000B400B800BCAF
:1001E00000C000C400C800CC00D000D400D800DC9F
:1001F00000E000E400E800EC00F000F400F800FC8F
:10020000000001040108010C0100003A003700342D
:100210000031002200610064000000390036003324
:1002200000300021002000630000003B0038003552
:10023000003200230062006500050505050505057F
:100240000502020202020202020707040404040477
:100250000404040707030303030303030307010163
:100260000101010101010606060606060606010255
:10027000040810204080010204081020408008106B
:10028000010204081020408001020102040810202D
:10029000408004804020100804020101020408107C
:1002A0002040800000000A0B0C000000000000014C
:1002B000040506000000000000000000000000002F
:1002C000000000000000000000000000000000002E
:1002D0000000000000000000E71311241FBECFEF54
:1002E000D0E1DEBFCDBF11E0A0E0B1E0EEEEFEE276
:1002F00000E00BBF02C007900D92A639B107D9F7F5
:1003000024E0A6E9B1E001C01D92A13CB207E1F7EB
:1003100011E0CDE6D1E004C02197FE010E94241631
:10032000CC36D107C9F70E94F8130C9475170C94BA
:1003300000009091B00481E0913208F043C08091B8
:100340008C048111FCCF8091AF0422E020938C04B7
:1003500021E020938B042FEF20938A042FE834E0D0
:100360003093890420938804109287049093860424
:100370001092850490918504880F892B80938504C1
:1003800080918404813029F5109284048091850441
:10039000809373008091740083FDF8CF85EC809387
:1003A000740080918C048230E1F380918A048F3F45
:1003B00091F080918A04803281F080918A048033A8
:1003C00071F084E010928E041092B00410928D04AB
:1003D000089585EEE4CF80E0F5CF82E0F3CF83E0AF
:1003E000F1CF90E0FC01ED55FD4F2491FC01E25965
:1003F000FD4F3491875C9D4FFC018491882341F12E
:100400002223C1F021502C30A8F4E22FF0E0E55F68
:10041000FD4F0C942416410241021A0217022902D0
:100420002C022F021A021A02330239023D029FB532
:100430009F779FBDE82FF0E0EE0FFF1FE75DFD4FB8
:10044000A591B4918FB7F894EC913E2B3C938FBF5C
:1004500008959FB59F7DEDCF9FB5977FEACF95B566
:100460009F7D95BDE7CF90918B009F7790938B00F8
:10047000E1CF90918B009F7DF9CF90918B00977F7A
:10048000F5CF93B79F7D93BFD5CFE82FF0E0E65926
:10049000FB4F8085861739F06087618B80916C04F3
:1004A000836080936C040895262F30E0909170044F
:1004B0009078691729F090916C049C6090936C047B
:1004C0003695322F222737952795822B80937004FB
:1004D000809371040895E0914702F09148023097AB
:1004E00029F010928E041092B00409940895CF93CD
:1004F000DF93AC01E0914502F09146023097F1F0B4
:1005000090914402809143029817C0F090E0292F07
:1005100030E02617370754F4D901AB55BE4F240FEE
:10052000351FE90128812C939F5FF1CF109244027F
:1005300060934302CB01DF91CF910994DF91CF917A
:100540000895CF93DF9390E0FC01E259FD4F249191
:10055000875C9D4FFC0184918823C9F090E0880F4F
:10056000991FFC01E75FFD4FA591B491FC01E75D88
:10057000FD4FC591D49161110DC09FB7F8948C9136
:10058000209582238C938881282328839FBFDF9125
:10059000CF910895623051F49FB7F8943C91822F27
:1005A000809583238C93E8812E2BEFCF8FB7F8941F
:1005B000EC912E2B2C938FBFEACF3FB7F89480910C
:1005C0003B0290913C02A0913D02B0913E0222B7C5
:1005D00006B600FE05C02F3F19F00196A11DB11D02
:1005E0003FBFBA2FA92F982F8827BC01CD01620FDA
:1005F000711D811D911D42E0660F771F881F991F95
:100600004A95D1F70895883008F5E82FF0E0EE0F0D
:10061000FF1FE95CFE4F718360838150873068F46F
:10062000E82FF0E0EA5EFC4F0C9424162703340315
:1006300042035003570362036E0380916A008C7F6C
:10064000482B40936A0089B7816089BF08958091E3
:100650006A00837F440F551F440F551F482B40935A
:100660006A0089B78260F1CF80916A008F7C74E064
:10067000440F551F7A95E1F7482B40936A0089B7DC
:100680008460E3CF80916A008F7366E0440F551F4A
:100690006A95E1F7482B40936A0089B78860D5CF07
:1006A0008AB78C7F482B4ABF89B78061CECF8AB783
:1006B000837F440F551F440F551F482B4ABF89B7EE
:1006C0008062C3CF8AB78F7C24E0440F551F2A95E0
:1006D000E1F7482B4ABF89B78064B7CF8AB78F73D9
:1006E00096E0440F551F9A95E1F7482B4ABF89B70A
:1006F0008068ABCFFF920F931F93CF93DF930E943D
:10070000DD022091A3013091A401EB01C21BD30BA8
:1007100020914D0230914E02C217D30708F461C0F8
:1007200040915702509158024130510561F0E091DB
:100730008002F09181022081309182022323309146
:100740004B0223134EC07093A4016093A301009148
:100750004F02109150024230510509F419C1433043
:10076000510509F454C14130510561F48091A20151
:10077000813009F449C0D8F1833009F486C084304F
:1007800009F4CFC08091570290915802019749F126
:10079000C017D10708F073C18091A0018F5F8093CB
:1007A000A0018B30F0F081E090E0909358028093AC
:1007B000570241E050E06AE773E080917E020E94B8
:1007C000030310924B021092A20182E590E09093F5
:1007D000500280934F0283E290E090934E02809308
:1007E0004D02DF91CF911F910F91FF900895C01797
:1007F000D10730F481E08093A201C093A101C2CF60
:1008000084E08093A201BECFC017D107E0F510921B
:10081000A2018091A0018F5F8093A0012091A1018E
:100820008C2F0C2E000C990B821B910927FD9395A0
:1008300097FF03C0919581959109499794F2109281
:1008400058021092570282E990E0909350028093F0
:100850004F0282E590E090934E0280934D021092F9
:10086000A001F0904C024F2D50E06AE773E08091B8
:100870007E020E9403038091820293E0F91229C054
:1008800080934B027FCF83E0BCCFC017D10718F510
:10089000109258021092570282E990E09093500211
:1008A00080934F0282E590E090934E0280934D0238
:1008B0001092A001F0904C024F2D50E06AE773E0D7
:1008C00080917E020E9403038091820233E0F3163E
:1008D000B9F280E0D5CF90914C02933009F482E0D8
:1008E00080934C0282E090E09093580280935702EC
:1008F00082E990E09093500280934F0282E590E06D
:1009000090934E0280934D0210925D028091A0015F
:1009100080935E0210925A0210925C0210925B0267
:10092000C9CFC017D107A8F41092580210925702ED
:1009300082E990E09093500280934F0282E590E02C
:1009400090934E0280934D021092A00110925A0291
:1009500088CF82E090E0909358028093570282E91A
:1009600090E09093500280934F0282E590E0909344
:100970004E0280934D0210925D028091A0018093FF
:100980005E0210925A0210925C0210925B0269CFD2
:1009900090915A029F5F90935A0280915B02880F58
:1009A000C017D107E0F080935B02983009F0F0CED9
:1009B000E0915D02E630A9F41092580210925702BD
:1009C00082E990E09093500280934F0282E590E09C
:1009D00090934E0280934D0210925A02D3CE8160C2
:1009E000E2CF83E090E09093580280935702909179
:1009F0005B0281E08E0F80935D02F0E0E95AFD4FCB
:100A0000908780915C02892780935C02BBCEC017DF
:100A1000D10728F5109258021092570210925A02EC
:100A200082E990E09093500280934F0282E590E03B
:100A300090934E0280934D0280915C028111ACCE66
:100A400088E0EDE5F2E0A5E6B2E001900D928A952E
:100A5000E1F781E0809359021092A00193CE80913A
:100A60005D02863009F4A8CF82E090E090935802AE
:100A70008093570210925A0210925B0283CE10921A
:100A8000A001AFCE0895DC011496ED91FC9115976D
:100A9000908111968C918095892380830895CF93BE
:100AA000DF93DC01EC91F0E0EE0FFF1FE75EFD4FFE
:100AB000C591D491988111968C91982381E009F485
:100AC00080E0DF91CF910895DC011296ED91FC91C9
:100AD000139711969C911197808161110EC090958A
:100AE000982390831496ED91FC911597908111961F
:100AF0008C918095892380830895982B9083089505
:100B00008091430290914402891B990B089585EDD1
:100B1000809374008091740084FDFCCF10928C044B
:100B200008952091E501260F3327331F2132310527
:100B3000ECF420918C04FC0190E080E0243069F01A
:100B400082E00895A091E5012191AC014B535E4FE5
:100B5000A40FB52FB11D2C930196861798F38091A1
:100B6000E501680F6093E50180E0089581E0089554
:100B70000895E091440280914302E81730F4F0E0D8
:100B8000EB55FE4F808190E008958FEF9FEF089521
:100B900090914402809143022FEF3FEF981748F461
:100BA000E92FF0E0EB55FE4F208130E09F5F9093FE
:100BB0004402C9010895CF92DF92EF92FF920F9302
:100BC0001F93CF93DF937C01CB018A0120918D0489
:100BD000222389F0EB016B01C40ED51ECC15DD0577
:100BE00069F06991D701ED91FC910190F081E02DC0
:100BF000C7010995F3CF642F0E949105C801DF91C9
:100C0000CF911F910F91FF90EF90DF90CF900895BB
:100C1000CF93DF931F92CDB7DEB7698320918D0408
:100C20002223F9F02091B004203258F021E030E086
:100C3000FC013383228390E080E00F90DF91CF911D
:100C4000089580918E04E82FF0E0E157FB4F9981E1
:100C500090838F5F80938E048093B00481E090E056
:100C6000ECCF61E0CE0101960E949105F7CF1F9372
:100C7000CF93DF93CCE1D2E01881698181EB94E0DE
:100C80000E940806612F81EB94E00E9408066A81A9
:100C900081EB94E0DF91CF911F910C94080690E0D6
:100CA00080E0089580E090E0892B29F08091860211
:100CB00083FD0C9400000895009731F160916D045C
:100CC00070916E048617970709F06DC041504A3045
:100CD000D8F4E42FF0E0E159F94F0C94241679068A
:100CE00085069006A006A706AE06B506BC06C30696
:100CF000CB0680917204281739F0209372048091FA
:100D00006C04816080936C0408959091730480EF6B
:100D1000820F292B28239217B9F320937304EFCF66
:100D20003091730440E1249FC0011124832B22954C
:100D3000207F215F8223381739F380937304DFCF3C
:100D400080917404281701F320937404D8CF809104
:100D500075042817C9F220937504D1CF80917604C9
:100D6000281791F220937604CACF80917704281730
:100D700059F220937704C3CF80917804281721F289
:100D800020937804BCCF80917904281709F4BCCF54
:100D900020937904B4CF80917A04281709F4B4CF52
:100DA00020937A04ACCF30916F043F77381719063F
:100DB00009F0AACF4230A1F018F4413031F0089583
:100DC0004330D1F0443049F1089580917B042817D5
:100DD00009F49ACF20937B0480916C04826092CFB7
:100DE00090917C0480EF820F292B2823921709F41D
:100DF0008BCF20937C04F0CF30917C0440E1249F82
:100E0000C0011124832B2295207F215F8223381774
:100E100009F47ACF80937C04DFCF80917D0428177A
:100E200009F472CF20937D04D7CF0F93009721F15F
:100E300060916D0470916E048617970729F5822FD3
:100E400090E0309170043078231729F020916C04E1
:100E5000246020936C040D3189F00F3779F00F3046
:100E600081F49C013695322F222737952795809162
:100E70007004822B809370040F9108954093700446
:100E8000F0CF10927004EDCF30916F043F77381798
:100E9000190691F7822F90E0309171043078231772
:100EA00029F020916C04286020936C049695982F6B
:100EB000882797958795482B40937104DDCF815003
:100EC0008B3108F026C0E82FF0E0E759F84F0C947A
:100ED000241684078A078E079207960798079A07B1
:100EE0009E07A007A207A407A607A807AA07AC07A2
:100EF000AE07B007B207B407B807BA07BC07C20706
:100F0000C607C807CA07CC0780916200877F809315
:100F100062000895809162008F7EF9CF8091620017
:100F20008F7DF5CF809162008F7BF1CFD8980895A7
:100F3000C0980895809162008D7FE9CF1D98089533
:100F40001C980895DF980895DE980895DD98089517
:100F5000DC980895DB980895C6980895C49808957C
:100F6000C5980895C7980895809162008B7FCFCF70
:100F70001B980895A8980895809165008D7F8093AF
:100F800065000895809165008E7FF9CF9798089548
:100F900096980895AD980895809162008E7FB7CF9E
:100FA0001F93CF93DF93EC018A819B8110E0892B03
:100FB000E9F48D819E8110E0892B69F588818E7F0F
:100FC0008883DF91CF911F910895812F90E0880F42
:100FD000991FEA81FB81E80FF91F0190F081E02D54
:100FE00080818F7780830E945F071F5F8981181738
:100FF00060F3DFCF812F90E0880F991FED81FE8194
:10100000E80FF91F0190F081E02D80818F778083B8
:101010000E945F071F5F8C81181760F3CFCFFC0120
:1010200090819570953019F4CF010C94D0070895F4
:10103000FC01208120FF03C022FF0C94D0070895FB
:1010400081508B3108F026C0E82FF0E0E65DF74FC5
:101050000C94241645084B084F08530857085908A4
:101060005B085F08610863086508670869086B0822
:101070006D086F0871087308750879087B087D088A
:101080008308870889088B088D0880916200886032
:10109000809362000895809162008061F9CF809111
:1010A00062008062F5CF809162008064F1CFD89AAF
:1010B0000895C09A0895809162008260E9CF1D9AD8
:1010C00008951C9A0895DF9A0895DE9A0895DD9A8E
:1010D0000895DC9A0895DB9A0895C69A0895C49AF3
:1010E0000895C59A0895C79A089580916200846012
:1010F000CFCF1B9A0895A89A0895809165008260C9
:10110000809365000895809165008160F9CF979A7A
:101110000895969A0895AD9A08958091620081602D
:10112000B7CF90916C04882361F0906190936C0428
:1011300081E00E94200880918A00887F80938A0045
:1011400008959F7E90936C0481E00E945F07109247
:1011500088001092890080918A008460EFCFCF933D
:10116000C82F80916F028C1719F08C2F0E94910864
:10117000C0936F02CC23F9F02FB7F89480915302FB
:1011800090915402A0915502B09156022FBF482F62
:10119000392F2A2F8B2F40937002309371022093A6
:1011A00072028093730280916F028C1749F08C2F2A
:1011B000CF910C94910840E030E020E080E0EBCF4C
:1011C000CF9108950F931F93CF938C01C0E0F80146
:1011D0008181C81720F0CF911F910F9108958C2F16
:1011E00090E0880F991FD8011296ED91FC91E80FBD
:1011F000F91F0190F081E02D8081982F90689083F5
:101200008F770E942008CF5FE2CF1F93CF93DF93A9
:10121000EC01288120FD15C022FF13C0322F316060
:10122000388321FF09C02A813B81232B51F0DF91B4
:10123000CF911F910C94E2082D813E8110E0232B69
:10124000B9F4DF91CF911F910895812F90E0880F1D
:10125000991FED81FE81E80FF91F0190F081E02DCB
:101260008081982F906890838F770E9420081F5F5D
:101270008C81181750F3E5CFCF93DF93EC01888171
:10128000982F9270691789F0662369F082608883CD
:10129000888180FF0AC0CE010E940F08CE01DF9135
:1012A000CF910C9405098D7FF2CFDF91CF910895F6
:1012B0001F93CF93DF93EC012881322F357099F47F
:1012C000322F3160388321FF09C02A813B81232BD3
:1012D00051F0DF91CF911F910C94E2082D813E8156
:1012E00010E0232BB9F4DF91CF911F910895812F46
:1012F00090E0880F991FED81FE81E80FF91F0190A2
:10130000F081E02D8081982F906890838F770E94E4
:1013100020081F5F8C81181750F3E5CFCF93DF9320
:10132000EC018881982F9270691789F0662369F023
:1013300082608883888180FF0AC0CE010E941808DD
:10134000CE01DF91CF910C9458098D7FF2CFDF91C0
:10135000CF910895E5E6F0E08081806180838FE79A
:101360009EE30197F1F700C0000080818F7E8083AB
:1013700008950C94AA091F93CF93DF93EC018091F9
:101380006C0484FF0BC08FE090E00E94FE15182FC4
:1013900080E190E00E94FE15181306C0CE01DF9197
:1013A000CF911F910C94FE15FFCF0C94BB09CF93E6
:1013B000DF9320918302309184022F3F320721F086
:1013C000C901DF91CF9108958091860287FF2BC0DC
:1013D00086FF0FC089E090E00E94D509C82F81E008
:1013E00090E00E94D5099C2F909384028093830201
:1013F00015C089E090E00E94D509C82F81E090E0F7
:101400000E94D50990E4C99F90011124207C31707D
:101410008F73282B30938402209383028091830260
:1014200090918402CECF85FF0CC081E190E00E94B4
:10143000D509C82F82E190E00E94D509C05CDD0B80
:10144000D2CF81E090E00E94D50990E0CDCFCF933C
:10145000863823E0920719F138F4813823E09207A7
:10146000D9F0CF910C94FE15873823E09207D1F084
:10147000883823E09207A9F786E893E00E94FE15DA
:10148000C82F87E893E00E94FE1590E02FEFC29FDF
:10149000800D911D1124E5CF81E893E0E2CF86E82D
:1014A00093E0DFCF87E893E0DCCF0E94AF08EDE662
:1014B000F2E081E087831086E6E7F2E088E0DF0172
:1014C0001D928A95E9F708950F931F93CF93DF93A9
:1014D000EC01162FC63883E0D80781F150F4C138EB
:1014E00083E0D807F9F0612FCE010E940616CE01E5
:1014F0001FC0C73883E0D80741F1C83883E0D80758
:1015000091F786E893E00E94FE15082F87E893E0A4
:101510000E94FE15C82FD0E08FEF089FC00DD11D8F
:101520001124E1CF81E893E00E94061681E893E060
:10153000DF91CF911F910F910C94FE1586E893E0F7
:101540000E94061686E893E0F3CF87E893E00E94B6
:10155000061687E893E0ECCFCF93DF93D0E0C0E0AE
:10156000FE01E457FF4F6491CE010E9406162196BA
:10157000CD3281E0D807A1F761E081E893E00E94D5
:101580000616C0E0CF5F8C2F0E942008CB31D1F728
:10159000DF91CF9108950C94AC0A1F93CF93DF9302
:1015A000209136012223C1F02FEF3FEF30930B0241
:1015B00020930A0230930F0220930E0230931302FD
:1015C00020931202309317022093160230931B02CD
:1015D00020931A021092360182309105C9F08330AF
:1015E000910509F458C020E030E0232B11F00E944F
:1015F00000008091430290914402891B990B1816B8
:1016000019060CF044C081EB94E00E94C805F1CFAC
:10161000E8E0F2E0D0E0C0E0828193810196E9F455
:10162000CC0FDD1FCC0FDD1FC85FDD4F1B821A8280
:1016300081EB94E00E94C805888381EB94E00E94CE
:10164000C8058983E0915102F09152023097C9F4A4
:10165000D0935202C09351021AC021963496C530DD
:10166000D105D1F68091430290914402891B990BD8
:101670001816190664F481EB94E00E94C805F2CFB5
:10168000FC01828193810097D9F7D383C283DF91D4
:10169000CF911F91089581EB94E00E94C805182F07
:1016A00081EB94E00E94C805D12F90E0C92FC80FAC
:1016B000D11DD0931D02C0931C0281EB94E00E94C7
:1016C000C805682F80931E02CE01D7FF21C09F77E7
:1016D00090931D0280931C028830910561F084383C
:1016E00023E0920741F08C3A23E0920721F0843DF9
:1016F00023E0920741F481E8683039F4DF91CF911B
:101700001F910C94AC0A0E94640A80931E02BFCF02
:101710000E94270AFACF1F93CF93DF93EC01162F75
:10172000089779F4662319F10E94AC0A80E090E0F2
:10173000892BB9F0612FCE01DF91CF911F910C94CD
:10174000000080E090E0892BA9F781E0C11590E1CD
:10175000D90708F080E0111105C0DF91CF911F91EA
:10176000089581E027972297C0F780E0F6CF80E0C8
:1017700090E0892BF9F681E0F0CF0F931F93CF9380
:10178000DF93EC01162F80916C0484FF25C0CF30CD
:10179000D10561F48FE090E00E9406168FE090E0A2
:1017A000DF91CF911F910F910C94FE158FE090E087
:1017B0000E94FE15082F80E190E00E94FE1508139C
:1017C0000AC0C730D10531F0C830D10529F418302E
:1017D00049F0FFCFFFCFFFCF612FCE010E94061649
:1017E000CE01DECF0E94AC0A88E0DF91CF911F913D
:1017F0000F9108958331910588F48131910530F47A
:101800008130910519F08930910531F42FEF3FEFC8
:1018100030938402209383020C94BD0B8D3191058B
:10182000D9F7677F6093860220916D022F73362F60
:10183000307C232B20936D02E9CFBF92CF92DF92B1
:10184000EF92FF920F931F93CF93DF938B01B42EF0
:10185000690182FF23C083FF17C061E0C8010E94B5
:101860008B0B8823D9F16B2DC8010E94FA0B8B11C9
:1018700035C0F601DF91CF911F910F91FF90EF904E
:10188000DF90CF90BF90099460E0C8010E948B0B5D
:10189000882321F1C8010E94D509E9CF842F8770E0
:1018A000C1E0D0E07E0101C0EE0C8A95EAF7D42FAA
:1018B000D870CB010E94D509C82FB4FE1CC061E0CE
:1018C000C8010E948B0B882349F0DD2389F0CE29C3
:1018D0006C2FC8010E94FA0B8C1759F2DF91CF913F
:1018E0001F910F91FF90EF90DF90CF90BF900895E0
:1018F000E094CE21EDCF60E0C8010E948B0B8823DD
:1019000069F3CE21DD2319F0C111B3CFE7CFCC238A
:1019100009F4AFCFE3CFAF92BF92DF92EF92FF9285
:101920000F931F93CF93DF937C01162FC42FD22EDA
:10193000D42FD07E80916D0287FF2CC0D03EC1F5A0
:10194000A0906E02AA20A1F1B12CC5010E94D50978
:10195000D82FC50101960E94D509982F8D2FE81622
:10196000F90631F56C2F70E0762F662766277370C5
:101970006D296F5F7F4F22E536E0402F8C2FDF917E
:10198000CF911F910F91FF90EF90DF90BF90AF909C
:101990000C941D0C80FD33C0D03609F464C090F463
:1019A000D03209F449C0D03409F45DC0DD2381F19F
:1019B000DF91CF911F910F91FF90EF90DF90BF903B
:1019C000AF900895D03A09F484C090F42C2F2F7171
:1019D00041E0D03869F7612FC701DF91CF911F91A6
:1019E0000F91FF90EF90DF90BF90AF900C945C064A
:1019F000D03C09F475C0D03E09F4B4CFD9CF0E94D1
:101A0000D7098E159F0541F2E114F10429F2D0CFD8
:101A10008C2F8E7069F680E090E0892B49F28C2F34
:101A20008170DF91CF911F910F91FF90EF90DF9028
:101A3000BF90AF900C940000CF71CF3109F0B8CFB8
:101A40004D2D4F7761F0413061F02D2D221F22275F
:101A5000221F0DE1612FC7010E941507A9CF41E0A8
:101A6000F4CF40E0F2CF2C2F30E08C2F8F718130FB
:101A700029F030F0803121F0813109F540E001C0DA
:101A800041E095E0359527959A95E1F721700DE1B4
:101A9000612FC7010E94150780E090E0892B09F4AF
:101AA00087CF4C2F612FC701DF91CF911F910F91ED
:101AB000FF90EF90DF90BF90AF900C940000C901B1
:101AC000880F991F8E71C4FB442740F9482B425060
:101AD000D8CF2C2F2F7043E0C4FF7DCF42E07BCFC7
:101AE000CF71CE3131F0CF3109F062CF2D2D45E0ED
:101AF00072CF2D2D44E06FCF4F925F926F927F9205
:101B00008F929F92AF92BF92CF92DF92EF92FF920D
:101B10000F931F93CF93DF93C0914902D0914A0254
:101B200080913202811116C02FB7F8948091530230
:101B300090915402A0915502B09156022FBF80930C
:101B40002E0290932F02A0933002B093310281E0D5
:101B50008093320280912602811111C00E94DD0221
:101B600060517109810991096093220270932302E7
:101B7000809324029093250281E0809326020E94A4
:101B8000DD022B013C018FB7F894C0905302D09036
:101B90005402E0905502F09056028FBF80912E02C1
:101BA000BC2CB81A80912202909123029201281B2A
:101BB000390BC90120912102211169C0FE0130E0D9
:101BC00020E045815681C417D50709F056C045E08D
:101BD000429F8001439F100D11240E5F1F4F0C0F79
:101BE0001D1F1093200200931F020115110509F417
:101BF00058C0F801148213828031910508F492C113
:101C0000853F914008F0B4C18D8D9E8D0E944F0597
:101C1000F801808381E08093210240922202509259
:101C200023026092240270922502F6E0FB1508F46C
:101C30007DC18D8D9E8D0E944F05A0901F02B0909A
:101C4000200290912102E92FE695E695E695292F4D
:101C5000277041E050E060E070E004C0440F551F81
:101C6000661F771F2A95D2F7EA0DFB2DF11D811112
:101C700029C040958081482327C02F5F3F4F35966C
:101C80002530310509F09DCF10E000E0AACF26E015
:101C90002B1508F44BC18031910518F0853F914018
:101CA00040F2DF91CF911F910F91FF90EF90DF9065
:101CB000CF90BF90AF909F908F907F906F905F90EC
:101CC0004F9008958081482B408381E0890F809355
:101CD00021024092220250922302609224027092CA
:101CE0002502982F9770E9F68031E9F4F50180819B
:101CF000873780F4EB8DFC8D309721F4BC8EAB8E52
:101D000007C0FC01838194810097D9F7B482A38234
:101D100010922102C0922E02D0922F02E092300245
:101D2000F0923102BECF8831A9F7F50111811F77FA
:101D30008DEF782E710EF7E2F71580F088818130F3
:101D4000A1F4812E912C1D3220F51B3228F4112391
:101D500051F121E0271508F18DE026C085ED810FB6
:101D6000883250F48881823061F3E0911F02F09153
:101D70002002D483C383CCCF8DEA810F883220F434
:101D80008881833091F7DDCF8EEF810F8230C8F6E6
:101D9000ECCF8DEA810F8230F8F2C4018F579C4F4F
:101DA0000E94270A01C08881F501028190819B373A
:101DB00039F19F3709F46CC09737B9F60813D5CFBE
:101DC00061E08D8D9E8D0E9464058D8D9E8D0E949B
:101DD00043058FE697E10197F1F700C00000AD8D54
:101DE000BE8D1496ED91FC911597808111969C9172
:101DF000892B808360E08D8D9E8D0E946405B5CF18
:101E0000202F2870302F377004FF35C01D3278F531
:101E10001B3208F0AACF91E0971508F0A6CF41E059
:101E200050E060E070E004C0440F551F661F771F4C
:101E30003A95D2F7182F142B211103C0142F1095A7
:101E40001823612FC4018F579C4F0E94640A1813F6
:101E50008CCF61E08D8D9E8D0E9464058D8D9E8D51
:101E60000E944305EFE6F7E13197F1F7B6CF13553E
:101E70001230A8F67ACF90E002C0959587953A95F2
:101E8000E2F7817099272817190609F06ECF98CFCD
:101E90001B32D9F190F51330C1F1143009F465CF3C
:101EA000602FC4018F579C4F0E94640A08131FC003
:101EB00061E08D8D9E8D0E9464058D8D9E8D0E94AA
:101EC00043058FE697E10197F1F700C00000AD8D63
:101ED000BE8D1496ED91FC911597808111969C9181
:101EE000892B808360E08D8D9E8D0E946405111189
:101EF0003CCF043078F4088338CF133531F01435F3
:101F000009F433CF1C3261F630CF083081F70E94DC
:101F1000AC0A9FCF61E081E893E00E94640A81E00F
:101F2000888323CFF6E0FB1508F0BBCE99E09B1524
:101F300008F0B7CEC0922E02D0922F02E09230026B
:101F4000F092310200911F02109120028D8D9E8D22
:101F50000E944F05F801808381E080932102409226
:101F6000220250922302609224027092250299CE9E
:101F700026E02B15D8F295CE9F92AF92BF92CF92CA
:101F8000DF92EF92FF920F931F93CF93DF937C0129
:101F90006B01942E81E0F701481328C0A280B38022
:101FA000E7012196A114B10431F562E070E081E00F
:101FB00090E00E942D168C01009731F0FC01D18237
:101FC000C08288818F5F8883F1E09F1242C0F70151
:101FD00013830283DF91CF911F910F91FF90EF90B8
:101FE000DF90CF90BF90AF909F900895A580B6806E
:101FF000E7012496D7CF88818F5F8883C82FD0E0F0
:1020000062E070E0CE010E942D168C0120E0AE014E
:1020100041505109822F90E08417950764F0C15018
:10202000D048CC0FDD1FC00FD11FD982C882C50197
:102030000E94E516C9CF880F991FF501E80FF91F17
:1020400060817181800F911FFC01718360832F5F1C
:10205000E1CFF70116830583BDCF1F920F920FB614
:102060000F9211242F933F938F939F93AF93BF931E
:102070008091530290915402A0915502B091560262
:1020800030913A0223E0230F2D3768F126E8230F21
:102090000296A11DB11D20933A02809353029093A2
:1020A0005402A0935502B093560280913B02909146
:1020B0003C02A0913D02B0913E020196A11DB11DCE
:1020C00080933B0290933C02A0933D02B0933E026A
:1020D000BF91AF919F918F913F912F910F900FBE24
:1020E0000F901F9018950196A11DB11DD4CF1F927E
:1020F0000F920FB60F9211240BB60F922F933F93AE
:102100004F935F936F937F938F939F93AF93BF93FF
:10211000EF93FF93E0914501F09146010995FF91FE
:10212000EF91BF91AF919F918F917F916F915F914F
:102130004F913F912F910F900BBE0F900FBE0F90BC
:102140001F9018951F920F920FB60F9211240BB685
:102150000F922F933F934F935F936F937F938F9340
:102160009F93AF93BF93EF93FF93E0914301F0915F
:1021700044010995FF91EF91BF91AF919F918F918C
:102180007F916F915F914F913F912F910F900BBE77
:102190000F900FBE0F901F9018951F920F920FB6C1
:1021A0000F9211240BB60F922F933F934F935F938F
:1021B0006F937F938F939F93AF93BF93EF93FF930F
:1021C000E0914101F09142010995FF91EF91BF919A
:1021D000AF919F918F917F916F915F914F913F91BF
:1021E0002F910F900BBE0F900FBE0F901F90189560
:1021F0001F920F920FB60F9211240BB60F922F93CE
:102200003F934F935F936F937F938F939F93AF937E
:10221000BF93EF93FF93E0913F01F0914001099547
:10222000FF91EF91BF91AF919F918F917F916F91AE
:102230005F914F913F912F910F900BBE0F900FBE6A
:102240000F901F9018951F920F920FB60F921124A6
:102250000BB60F922F933F934F935F936F937F93A0
:102260008F939F93AF93BF93EF93FF93E0913D01C3
:10227000F0913E010995FF91EF91BF91AF919F9130
:102280008F917F916F915F914F913F912F910F901F
:102290000BBE0F900FBE0F901F9018951F920F92BC
:1022A0000FB60F9211240BB60F922F933F934F93BB
:1022B0005F936F937F938F939F93AF93BF93EF93AE
:1022C000FF93E0913B01F0913C010995FF91EF9163
:1022D000BF91AF919F918F917F916F915F914F913E
:1022E0003F912F910F900BBE0F900FBE0F901F903C
:1022F00018951F920F920FB60F9211240BB60F92E2
:102300002F933F934F935F936F937F938F939F93FD
:10231000AF93BF93EF93FF93E0913901F0913A01AE
:102320000995FF91EF91BF91AF919F918F917F910F
:102330006F915F914F913F912F910F900BBE0F9036
:102340000FBE0F901F9018951F920F920FB60F920D
:1023500011240BB60F922F933F934F935F936F937C
:102360007F938F939F93AF93BF93EF93FF93E091EE
:102370003701F09138010995FF91EF91BF91AF912D
:102380009F918F917F916F915F914F913F912F918D
:102390000F900BBE0F900FBE0F901F9018951F92BD
:1023A0000F920FB60F9211240BB60F922F933F93FB
:1023B0004F935F936F937F938F939F93AF93BF934D
:1023C000EF93FF9380917100887F803609F44DC0B0
:1023D00008F040C0883209F4A9C028F5803109F41A
:1023E0009DC0C8F4882309F407C1883009F496C059
:1023F000FF91EF91BF91AF919F918F917F916F91DD
:102400005F914F913F912F910F900BBE0F900FBE98
:102410000F901F901895883109F488C0803241F7D9
:1024200080938A0414C0803409F4A5C040F480333A
:10243000B9F38833E9F680938A0485ECBCC0803513
:1024400009F489C0883509F49EC0883489F60E9451
:102450008705CECF883909F494C038F5883729F03C
:1024600050F4883611F0803719F683E080938C049D
:102470001092070257C0883809F483C0803919F0D8
:10248000803809F0B5CF80910702803208F079C01A
:10249000E091070281E08E0F809307028091730024
:1024A000F0E0E951FE4F80833DC0803B39F0E0F41D
:1024B000803A09F485C0883A09F09ACF84E0809385
:1024C0008C041092E6011092E501E0914102F09136
:1024D000420209958091E50181110FC081E080934E
:1024E000E5011092C50109C0803C09F4A6CF883CE3
:1024F00009F4A3CF883B09F07BCFE091E60181E0AE
:102500008E0F8093E601F0E0EB53FE4F80818093C5
:1025100073009091E6018091E50131C080918504BE
:102520008093730085EC8093740062CF9091870450
:10253000809186049817B8F5809188049091890459
:10254000E091870421E02E0F20938704E80FF92FF4
:10255000F11D8081E5CF2091880430918904E091BC
:10256000870481E08E0F8093870480917300E20FCF
:10257000F32FF11D80839091870480918604981732
:1025800088F285E8D0CF2091880430918904E091C9
:10259000870481E08E0F8093870480917300E20F9F
:1025A000F32FF11D808380918B04811150CF81E046
:1025B0008093840484EA8093740010928C0418CF72
:1025C00085EC8093740010928C0480910702803215
:1025D00030F4E0910702F0E0E951FE4F1082609183
:1025E000070270E0E0913F02F091400287EE91E037
:1025F000099510920702FCCE10928A0428CF1F92F0
:102600000F920FB60F9211240BB60F92EF92FF921A
:102610000F931F932F933F934F935F936F937F93EA
:102620008F939F93AF93BF93CF93DF93EF93FF93DA
:102630000FB6F894A89581B5886181BD11BC0FBE15
:10264000789485B78F7D85BF10929F01C1E0D1E05E
:10265000D0938D04C093AF0410928E041092B004F6
:102660000E949901811105C080919F018F5F809325
:102670009F01CF5FCF3761F780919D0190919E01BF
:10268000009731F00E94E51610929E0110929D0174
:10269000D0919F01DD2371F161E070E08D2F90E01A
:1026A0000E942D167C0190939E0180939D0110E065
:1026B000C1E001E000938D04C093AF0410928E043A
:1026C0001092B0040E949901811105C0F701E10F39
:1026D000F11DC0831F5FCF5FCF3761F7D23050F05D
:1026E00080918A00887F80938A0080917D008B7F13
:1026F00080937D00109288001092890085B78062D7
:1027000085BFFF91EF91DF91CF91BF91AF919F91E5
:102710008F917F916F915F914F913F912F911F9179
:102720000F91FF90EF900F900BBE0F900FBE0F9088
:102730001F9018951F920F920FB60F9211240BB68F
:102740000F922F933F934F935F936F937F938F934A
:102750009F93AF93BF93CF93DF93EF93FF937894BF
:10276000CDE4D1E0E991F991808187FF08C08F77AE
:1027700020919C019181921720F10E94200881E014
:10278000C338D80779F786E984BD80919C018F5FB3
:102790008032D1F080939C01FF91EF91DF91CF9136
:1027A000BF91AF919F918F917F916F915F914F9169
:1027B0003F912F910F900BBE0F900FBE0F901F9067
:1027C00018950E945F07DBCF10929C01E5CFE1EBEB
:1027D000F4E01382128288EE93E0A0E0B0E08483FC
:1027E0009583A683B78387E891E0918380830895DA
:1027F000789483B78C6483BF87B7816087BFC2E05A
:10280000CEBD8EB581608EBD8FB581608FBD85B523
:10281000846085BD85B5806485BD80918A008360B4
:1028200080938A0080918B00816080938B0087E881
:1028300086B91AB80FB6F894A89581B5886181BD9C
:1028400011BC0FBE1ABA17BA14BA11BA12B8109244
:1028500061001092640061E081E00E94A10281E0C9
:102860000E94F101109244021092430210928E04D1
:102870001092B00410928C0481E080938B0410922B
:10288000840483E10E94F10182E10E94F1018091C0
:1028900071008C7F8093710088E48093700085E4E0
:1028A000809374008BE692E0909342028093410201
:1028B00087E792E09093400280933F02C0937200BA
:1028C0008CE0809370008DEC9AE0909346028093A8
:1028D000450287E396E090934802809347028091F7
:1028E00061008860809361008091610080618093C5
:1028F000610080916100806280936100809161003D
:10290000806480936100D09AB89A8091610082605F
:1029100080936100159A149AD79AD69AD59AD49A28
:10292000D39ABE9ABC9ABD9ABF9A80916100846086
:1029300080936100139AA09A8091640082608093D2
:102940006400809164008160809364008F9A8E9A05
:10295000A59A8091610081608093610080916400FC
:10296000806180936400D0E0C0E0FE01E457FF4F37
:102970006491CE010E9406162196CD3221E0D20745
:10298000A1F761E081E893E00E940616C0E0CF5F06
:102990008C2F0E942008CB31D1F78DE190E00E946E
:1029A000FE1580936A048CE190E00E94FE158093EE
:1029B0006B048DE190E00E94FE1585FF03C181E16B
:1029C00090E00E94FE158F73C82FD0E0DC2FCC273B
:1029D00082E190E00E94FE15C82BD0936E04C09354
:1029E0006D0483E190E00E94FE1580936F0480E8FF
:1029F000809370048093710489EBA82E81E0B82E37
:102A00009DE4E92E91E0F92E670127E0922EF50171
:102A100005911491C8010E94FE15C82FC8010196A6
:102A20000E94FE15D82F0E5F1F4FC8010E94FE1591
:102A3000803228F06FE1C8010E9417168FE1D6019D
:102A40000D911D916D01F8018183D03809F4C9C041
:102A5000D13809F4CEC0D1110FC0C99DE0011124B5
:102A6000C957DD4F41E0B801CE010E94BC0F40E0E4
:102A7000B801CE010E94BC0FF2E0AF0EB11C23E8FA
:102A8000C21621E0D20609F0C2CF85E190E00E9493
:102A9000FE1580FF05C090918E02946090938E0287
:102AA00081FF05C09091950294609093950282FFFA
:102AB00005C090919C02946090939C0283FF05C096
:102AC0009091A30294609093A30284FF05C090911B
:102AD000AA0294609093AA0285FF05C09091B1026A
:102AE00094609093B10286FF05C09091B802946003
:102AF0009093B80287FF05C08091BF0284608093E5
:102B0000BF0286E190E00E94FE1580FF05C0909113
:102B1000870294609093870282FF05C09091C6025D
:102B200094609093C60283FF05C09091CD0294609B
:102B30009093CD0284FF05C09091D402946090934D
:102B4000D40285FF05C09091DB0294609093DB0274
:102B500086FF05C09091E20294609093E20287FFA5
:102B600005C08091E90284608093E902D701ED916C
:102B7000FD917D0180818F7780830E945F07B3E89C
:102B8000EB16B1E0FB0691F70AE614E0C7E8D2E0E5
:102B9000CE010E945809CE010E940509EFEFF9E627
:102BA00028E1E150F0402040E1F700C00000CE01F4
:102BB0000E941808CE010E940F0827960C171D07C7
:102BC00039F7E4CF81E090E00E94FE15181634F04A
:102BD00063E081E090E00E94061683E0C82FD0E019
:102BE000FCCEC99DC001112440E0B80189579D4F1A
:102BF00041CFC99DC001112441E0F7CFE199FECF3B
:102C00009FBB8EBBE09A99278DB30895262FE1993B
:102C1000FECF9FBB8EBBE09A01970DB2021631F03A
:102C20002DBB0FB6F894E29AE19A0FBE0895262FB5
:102C3000E199FECF9FBB8EBB2DBB0FB6F894E29AF5
:102C4000E19A0FBE01960895EE0FFF1F0024001CAD
:102C50000BBE0790F691E02D09940F931F93CF932D
:102C6000DF93869F8001879F100D969F100D112482
:102C7000C8010E944916EC01009729F0A80170E0F4
:102C800060E00E946E17CE01DF91CF911F910F91EE
:102C900008950F931F93CF93DF938230910510F423
:102CA00082E090E0E091BF04F091C00430E020E0C9
:102CB000B0E0A0E0309799F42115310509F44AC03D
:102CC000281B390B24303105D8F58A819B81611589
:102CD000710589F1FB0193838283FE0111C040815C
:102CE00051810281138148175907E0F048175907AD
:102CF00099F4109761F012960C93129713961C9307
:102D00003296CF01DF91CF911F910F9108950093DB
:102D1000BF041093C004F4CF2115310551F04217C0
:102D2000530738F0A901DB019A01BD01DF01F80169
:102D3000C1CFEF01F9CF9093C0048093BF04CDCFF2
:102D4000FE01E20FF31F81939193225031093983E1
:102D50002883D7CF2091BD043091BE04232B41F4AA
:102D60002091490130914A013093BE042093BD0463
:102D700020914701309148012115310541F42DB7CB
:102D80003EB740914B0150914C01241B350BE09113
:102D9000BD04F091BE04E217F307A0F42E1B3F0B15
:102DA0002817390778F0AC014E5F5F4F24173507BD
:102DB00048F04E0F5F1F5093BE044093BD048193B3
:102DC00091939FCFF0E0E0E09CCFCF93DF9300970B
:102DD000E9F0FC01329713821282A091BF04B091F6
:102DE000C004ED0130E020E01097A1F42081318192
:102DF000820F931F2091BD043091BE04281739071C
:102E000009F061C0F093BE04E093BD04DF91CF915F
:102E10000895EA01CE17DF07E8F54A815B819E013C
:102E200041155105B1F7E901FB83EA8349915991B5
:102E3000C40FD51FEC17FD0761F4808191810296C4
:102E4000840F951FE90199838883828193819B83F5
:102E50008A83F0E0E0E012968D919C9113970097A1
:102E6000B9F52D913C911197CD010296820F931FD8
:102E70002091BD043091BE042817390739F63097E8
:102E800051F51092C0041092BF04B093BE04A093F9
:102E9000BD04BCCFD383C28340815181840F951F71
:102EA000C817D90761F44E5F5F4F88819981480F39
:102EB000591F518340838A819B819383828321158B
:102EC000310509F0B0CFF093C004E093BF049ECF6A
:102ED000FD01DC01C0CF13821282D7CFDC0101C01B
:0E2EE0006D9341505040E0F70895F894FFCFF5
:102EEE001BFF1AFF19FF18FF17FF16FF15FF14FF20
:102EFE0013FF12FF11FF10FF0FFF0EFF0DFF0CFF50
:102F0E000BFF0AFF09FF08FF07FF06FF05FF04FF7F
:102F1E0003FF02FF01FF0142050000000000000058
:102F2E00000000000000000000C1048000340132E7
:102F3E000130012E012C012A012801260124012233
:102F4E000120011E011C011A0118011601140112A3
:102F5E000110010E010C010A010801060104010213
:102F6E00010001000000000806DB054F06B80580D1
:062F7E0005C805B90500BD
:00000001FF
