:100000000C946C010C941A0F0C94EF0E0C94C40E0B
:100010000C94990E0C946E0E0C94430E0C94180EC6
:100020000C94ED0D0C948B010C94450F0C948B01EA
:100030000C948B010C948B010C948B010C948B0110
:100040000C94A30D0C948B010C948B010C948B01DC
:100050000C948B010C948B010C948B010C948B01F0
:100060000C948B010C948B010C948B010C948B01E0
:100070000C948B010C948B010C948B010C948B01D0
:100080000C948B010C948B010C948B010000000AE2
:100090000B0C000000000000010405060000000039
:1000A0000000000000000000000000000000000050
:1000B0000000000000000000000000000000000040
:1000C000003F030000000000130D000000000000CE
:1000D0000101C080000000000000000000000600D8
:1000E0000000000000000000000000000000000010
:1000F0000000000000000000000000FF03000000FE
:1001000000000000000000000000000000000000EF
:1001100000000000000000000000000000000000DF
:1001200000000000000000000000000000000000CF
:100130000002001400030014000400140005001461
:100140000006001400070014000800140009001441
:10015000000A0014000B0008000C0008000D000845
:10016000000E0008000F0008001000080011000831
:1001700000120008001300080014001400150014F9
:10018000000100140001001400010014000100141B
:10019000000100140000801F0000811F00FF00000C
:1001A00000FF000000FF000000FF000000FF000053
:1001B00000FF000000FF000000FF000000FF000043
:1001C00000FF000000FF000000FF000000FF000033
:1001D000000000000000000000000000000000001F
:1001E000000000000000000000000000000070009F
:1001F000740078007C008000840088008C009000EF
:10020000940098009C00A000A400A800AC00B000DE
:10021000B400B800BC00C000C400C800CC00D000CE
:10022000D400D800DC00E000E400E800EC00F000BE
:10023000F400F800FC000001040108010C010000BA
:100240003B003800350032002300620065000000EA
:100250003A003700340031002200610064000102DE
:10026000040810204080010204081020408008107B
:10027000010204081020408001020102040810203D
:10028000408004804020100804020101020408108C
:10029000204080000039003600330030002100206B
:1002A00000630005050505050505050202020202B9
:1002B00002020207070404040404040404070703F9
:1002C000030303030303030701010101010101010A
:1002D000060606060606060611241FBECFEFD0E16D
:1002E000DEBFCDBF11E0A0E0B1E0E2EFF5E200E05B
:1002F0000BBF02C007900D92A238B107D9F723E0D7
:10030000A2E8B1E001C01D92A53EB207E1F70E944C
:100310009E0F0C94F7120C940000E82FF0E0E953C4
:10032000FC4F8085861739F06087618B8091C90307
:1003300083608093C9030895262F30E09091CD0308
:100340009078691729F09091C9039C609093C90334
:100350003695322F222737952795822B8093CD0310
:100360008093CE030895CF93DF9390E0FC01E25A8F
:10037000FD4F24918D559D4FFC0184918823C9F038
:1003800090E0880F991FFC01E25BFD4FA591B491AD
:10039000FC01E25CFD4FC591D49161110DC09FB786
:1003A000F8948C91209582238C938881282328832C
:1003B0009FBFDF91CF910895623051F49FB7F894B9
:1003C0003C91822F809583238C93E8812E2BEFCF55
:1003D0008FB7F894EC912E2B2C938FBFEACF3FB7B9
:1003E000F8948091A4019091A501A091A601B091EB
:1003F000A70122B706B600FE05C02F3F19F00196EF
:10040000A11DB11D3FBFBA2FA92F982F8827BC016E
:10041000CD01620F711D811D911D42E0660F771F96
:10042000881F991F4A95D1F70895883008F5E82F5D
:10043000F0E0EE0FFF1FEA5CFE4F71836083815096
:10044000873068F4E82FF0E0E85DFD4F0C94A611CA
:1004500039024602540262026902740280028091EB
:100460006A008C7F482B40936A0089B7816089BFFE
:10047000089580916A00837F440F551F440F551FD4
:10048000482B40936A0089B78260F1CF80916A005F
:100490008F7C74E0440F551F7A95E1F7482B409309
:1004A0006A0089B78460E3CF80916A008F7366E049
:1004B000440F551F6A95E1F7482B40936A0089B7AE
:1004C0008860D5CF8AB78C7F482B4ABF89B78061B7
:1004D000CECF8AB7837F440F551F440F551F482B3B
:1004E0004ABF89B78062C3CF8AB78F7C24E0440FAC
:1004F000551F2A95E1F7482B4ABF89B78064B7CFCB
:100500008AB78F7396E0440F551F9A95E1F7482BF1
:100510004ABF89B78068ABCFFF920F931F93CF93E9
:10052000DF930E94EF012091860130918701EB015A
:10053000C21BD30B2091AC013091AD01C217D30780
:1005400008F461C04091B4015091B50141305105AA
:1005500061F0E091DD01F091DE0120813091DF0159
:1005600023233091AA0123134EC070938701609317
:1005700086010091AE011091AF014230510509F49E
:1005800019C14330510509F454C14130510561F49A
:1005900080918501813009F449C0D8F1833009F494
:1005A00086C0843009F4CFC08091B4019091B50128
:1005B000019749F1C017D10708F073C180918301F9
:1005C0008F5F809383018B30F0F081E090E0909317
:1005D000B5018093B40141E050E06CE872E0809195
:1005E000DB010E9415021092AA011092850182E59A
:1005F00090E09093AF018093AE0183E290E09093FE
:10060000AD018093AC01DF91CF911F910F91FF90CD
:100610000895C017D10730F481E080938501C0931D
:100620008401C2CF84E080938501BECFC017D1077B
:10063000E0F510928501809183018F5F80938301A3
:10064000209184018C2F0C2E000C990B821B910998
:1006500027FD939597FF03C091958195910949973F
:1006600094F21092B5011092B40182E990E0909357
:10067000AF018093AE0182E590E09093AD0180934D
:10068000AC0110928301F090AB014F2D50E06CE86B
:1006900072E08091DB010E9415028091DF0193E0FE
:1006A000F91229C08093AA017FCF83E0BCCFC01785
:1006B000D10718F51092B5011092B40182E990E0CB
:1006C0009093AF018093AE0182E590E09093AD01ED
:1006D0008093AC0110928301F090AB014F2D50E05C
:1006E0006CE872E08091DB010E9415028091DF01CD
:1006F00033E0F316B9F280E0D5CF9091AB0193309F
:1007000009F482E08093AB0182E090E09093B50120
:100710008093B40182E990E09093AF018093AE01A1
:1007200082E590E09093AD018093AC011092BA0104
:10073000809183018093BB011092B7011092B9019F
:100740001092B801C9CFC017D107A8F41092B50113
:100750001092B40182E990E09093AF018093AE01D2
:1007600082E590E09093AD018093AC0110928301FB
:100770001092B70188CF82E090E09093B50180930A
:10078000B40182E990E09093AF018093AE0182E5DD
:1007900090E09093AD018093AC011092BA018091EA
:1007A00083018093BB011092B7011092B90110929E
:1007B000B80169CF9091B7019F5F9093B701809185
:1007C000B801880FC017D107E0F08093B8019830C6
:1007D00009F0F0CEE091BA01E630A9F41092B5012B
:1007E0001092B40182E990E09093AF018093AE0142
:1007F00082E590E09093AD018093AC011092B70137
:10080000D3CE8160E2CF83E090E09093B5018093F6
:10081000B4019091B80181E08E0F8093BA01F0E0AD
:10082000EC54FE4F90878091B90189278093B901DC
:10083000BBCEC017D10728F51092B5011092B401B4
:100840001092B70182E990E09093AF018093AE01DE
:1008500082E590E09093AD018093AC018091B90165
:100860008111ACCE88E0EAEBF1E0A2ECB1E00190BE
:100870000D928A95E1F781E08093B6011092830191
:1008800093CE8091BA01863009F4A8CF82E090E03F
:100890009093B5018093B4011092B7011092B80102
:1008A00083CE10928301AFCE0895CF93DF93DC0106
:1008B000EC91F0E0EE0FFF1FED56FD4FC591D49186
:1008C000988111968C91982381E009F480E0DF9162
:1008D000CF910895DC011296ED91FC91139711963A
:1008E0009C911197808161110EC0909598239083FF
:1008F0001496ED91FC911597908111968C918095AD
:10090000892380830895982B9083089580E090E058
:10091000892B29F08091E30183FD0C940000089558
:10092000009731F16091CA037091CB038617970746
:1009300009F06DC041504A30D8F4E42FF0E0ED5595
:10094000FB4F0C94A611AD04B904C404D404DB0419
:10095000E204E904F004F704FF048091CF032817B0
:1009600039F02093CF038091C90381608093C9033C
:1009700008959091D00380EF820F292B282392179E
:10098000B9F32093D003EFCF3091D00340E1249FFF
:10099000C0011124832B2295207F215F82233817E9
:1009A00039F38093D003DFCF8091D103281701F36F
:1009B0002093D103D8CF8091D2032817C9F2209376
:1009C000D203D1CF8091D303281791F22093D30380
:1009D000CACF8091D403281759F22093D403C3CFF0
:1009E0008091D503281721F22093D503BCCF8091A5
:1009F000D603281709F4BCCF2093D603B4CF809137
:100A0000D703281709F4B4CF2093D703ACCF309184
:100A1000CC033F773817190609F0AACF4230A1F06E
:100A200018F4413031F008954330D1F0443049F1A9
:100A300008958091D803281709F49ACF2093D803FA
:100A40008091C903826092CF9091D90380EF820F89
:100A5000292B2823921709F48BCF2093D903F0CFA9
:100A60003091D90340E1249FC0011124832B2295AA
:100A7000207F215F8223381709F47ACF8093D9032E
:100A8000DFCF8091DA03281709F472CF2093DA03BD
:100A9000D7CF0F93009721F16091CA037091CB03D8
:100AA0008617970729F5822F90E03091CD03307893
:100AB000231729F02091C90324602093C9030D3125
:100AC00089F00F3779F00F3081F49C013695322F81
:100AD0002227379527958091CD03822B8093CD03D4
:100AE0000F9108954093CD03F0CF1092CD03EDCF39
:100AF0003091CC033F773817190691F7822F90E099
:100B00003091CE033078231729F02091C903286053
:100B10002093C9039695982F882797958795482BFA
:100B20004093CE03DDCF81508B3108F026C0E82FF3
:100B3000F0E0E356FA4F0C94A611B805BE05C205C5
:100B4000C605CA05CC05CE05D205D405D605D805FF
:100B5000DA05DC05DE05E005E205E405E605E80565
:100B6000EC05EE05F005F605FA05FC05FE050006A8
:100B700080916200877F8093620008958091620077
:100B80008F7EF9CF809162008F7DF5CF80916200DA
:100B90008F7BF1CFD8980895C09808958091620016
:100BA0008D7FE9CF1D9808951C980895DF980895CA
:100BB000DE980895DD980895DC980895DB980895EF
:100BC000C6980895C4980895C5980895C79808953B
:100BD000809162008B7FCFCF1B980895A8980895CD
:100BE000809165008D7F80936500089580916500F8
:100BF0008E7FF9CF9798089596980895AD980895A7
:100C0000809162008E7FB7CF1F93CF93DF93EC016B
:100C10008A819B8110E0892BE9F48D819E8110E00F
:100C2000892B69F588818E7F8883DF91CF911F9111
:100C30000895812F90E0880F991FEA81FB81E80FCA
:100C4000F91F0190F081E02D80818F7780830E94D1
:100C500093051F5F8981181760F3DFCF812F90E024
:100C6000880F991FED81FE81E80FF91F0190F08137
:100C7000E02D80818F7780830E9493051F5F8C8198
:100C8000181760F3CFCFFC0190819570953019F45F
:100C9000CF010C9404060895FC01208120FF03C0BD
:100CA00022FF0C940406089581508B3108F026C071
:100CB000E82FF0E0E25AF94F0C94A61179067F066E
:100CC000830687068B068D068F0693069506970684
:100CD00099069B069D069F06A106A306A506A706E4
:100CE000A906AD06AF06B106B706BB06BD06BF0630
:100CF000C1068091620088608093620008958091AF
:100D000062008061F9CF809162008062F5CF8091AE
:100D100062008064F1CFD89A0895C09A08958091B6
:100D200062008260E9CF1D9A08951C9A0895DF9AA7
:100D30000895DE9A0895DD9A0895DC9A0895DB9A65
:100D40000895C69A0895C49A0895C59A0895C79AB1
:100D50000895809162008460CFCF1B9A0895A89A6D
:100D60000895809165008260809365000895809168
:100D700065008160F9CF979A0895969A0895AD9A83
:100D80000895809162008160B7CF9091C903882354
:100D900061F090619093C90381E00E9454068091B4
:100DA0008A00887F80938A0008959F7E9093C9036C
:100DB00081E00E9493051092880010928900809132
:100DC0008A008460EFCFCF93C82F8091CC018C171D
:100DD00019F08C2F0E94C506C093CC01CC23F9F0EA
:100DE0002FB7F8948091B0019091B101A091B20118
:100DF000B091B3012FBF482F392F2A2F8B2F40934B
:100E0000CD013093CE012093CF018093D00180910A
:100E1000CC018C1749F08C2FCF910C94C50640E083
:100E200030E020E080E0EBCFCF9108950F931F9347
:100E3000CF938C01C0E0F8018181C81720F0CF91D9
:100E40001F910F9108958C2F90E0880F991FD80162
:100E50001296ED91FC91E80FF91F0190F081E02DC1
:100E60008081982F906890838F770E945406CF5F7F
:100E7000E2CF1F93CF93DF93EC012881322F35709F
:100E800099F4322F3160388321FF09C02A813B81D8
:100E9000232B51F0DF91CF911F910C9416072D81D8
:100EA0003E8110E0232BB9F4DF91CF911F9108957B
:100EB000812F90E0880F991FED81FE81E80FF91FC7
:100EC0000190F081E02D8081982F906890838F773A
:100ED0000E9454061F5F8C81181750F3E5CFCF9303
:100EE000DF93EC018881982F9270691789F066234F
:100EF00069F082608883888180FF0AC0CE010E94E9
:100F00004C06CE01DF91CF910C9439078D7FF2CF43
:100F1000DF91CF9108951F93CF93DF93EC01288148
:100F200020FD15C022FF13C0322F3160388321FF0E
:100F300009C02A813B81232B51F0DF91CF911F9172
:100F40000C9416072D813E8110E0232BB9F4DF911C
:100F5000CF911F910895812F90E0880F991FED8107
:100F6000FE81E80FF91F0190F081E02D8081982F1C
:100F7000906890838F770E9454061F5F8C811817AA
:100F800050F3E5CFCF93DF93EC018881982F9270D7
:100F9000691789F0662369F082608883888180FF01
:100FA0000AC0CE010E944306CE01DF91CF910C947E
:100FB0008B078D7FF2CFDF91CF910895E5E6F0E0CA
:100FC0008081806180838FE79EE30197F1F700C005
:100FD000000080818F7E808308950C94DE071F932C
:100FE000CF93DF93EC018091C90384FF0BC08FE0A6
:100FF00090E00E948011182F80E190E00E94801103
:10100000181306C0CE01DF91CF911F910C9480116F
:10101000FFCF0C94EF07CF93DF932091E001309145
:10102000E1012F3F320721F0C901DF91CF910895EF
:101030008091E30187FF2BC086FF0FC089E090E01D
:101040000E940908C82F81E090E00E9409089C2FA7
:101050009093E1018093E00115C089E090E00E9447
:101060000908C82F81E090E00E94090890E4C99F18
:1010700090011124207C31708F73282B3093E10173
:101080002093E0018091E0019091E101CECF85FFB6
:101090000CC081E190E00E940908C82F82E190E035
:1010A0000E940908C05CDD0BD2CF81E090E00E9475
:1010B000090890E0CDCFCF93863823E0920719F14D
:1010C00038F4813823E09207D9F0CF910C94801145
:1010D000873823E09207D1F0883823E09207A9F7F8
:1010E00086E893E00E948011C82F87E893E00E9471
:1010F000801190E02FEFC29F800D911D1124E5CF4C
:1011000081E893E0E2CF86E893E0DFCF87E893E0E1
:10111000DCCF0E94E306EAECF1E081E087831086F1
:10112000E3EDF1E088E0DF011D928A95E9F708958B
:101130000F931F93CF93DF93EC01162FC63883E0F4
:10114000D80781F150F4C13883E0D807F9F0612F56
:10115000CE010E948811CE011FC0C73883E0D80796
:1011600041F1C83883E0D80791F786E893E00E9400
:101170008011082F87E893E00E948011C82FD0E0EB
:101180008FEF089FC00DD11D1124E1CF81E893E0BE
:101190000E94881181E893E0DF91CF911F910F9118
:1011A0000C94801186E893E00E94881186E893E011
:1011B000F3CF87E893E00E94881187E893E0ECCFB3
:1011C000CF93DF93D0E0C0E0FE01EF53FF4F649177
:1011D000CE010E9488112196CD3281E0D807A1F777
:1011E00061E081E893E00E948811C0E0CF5F8C2F1E
:1011F0000E945406CB31D1F7DF91CF9108950C9422
:10120000E0081F93CF93DF93EC01162F089779F432
:10121000662319F10E94E00880E090E0892BB9F084
:10122000612FCE01DF91CF911F910C94000080E0DF
:1012300090E0892BA9F781E0C11590E1D90708F06A
:1012400080E0111105C0DF91CF911F91089581E0D9
:1012500027972297C0F780E0F6CF80E090E0892BB7
:10126000F9F681E0F0CF0F931F93CF93DF93EC015A
:10127000162F8091C90384FF25C0CF30D10561F4BA
:101280008FE090E00E9488118FE090E0DF91CF9195
:101290001F910F910C9480118FE090E00E948011BB
:1012A000082F80E190E00E94801108130AC0C73027
:1012B000D10531F0C830D10529F4183049F0FFCFFD
:1012C000FFCFFFCF612FCE010E948811CE01DECF6C
:1012D0000E94E00888E0DF91CF911F910F9108955F
:1012E0008331910588F48131910530F48130910585
:1012F00019F08930910531F42FEF3FEF3093E10180
:101300002093E0010C9433098D319105D9F7677F63
:101310006093E3012091CA012F73362F307C232B79
:101320002093CA01E9CFBF92CF92DF92EF92FF9252
:101330000F931F93CF93DF938B01B42E690182FF2C
:1013400023C083FF17C061E0C8010E940109882300
:10135000D9F16B2DC8010E9470098B1135C0F601BF
:10136000DF91CF911F910F91FF90EF90DF90CF9081
:10137000BF90099460E0C8010E940109882321F10F
:10138000C8010E940908E9CF842F8770C1E0D0E02E
:101390007E0101C0EE0C8A95EAF7D42FD870CB01FC
:1013A0000E940908C82FB4FE1CC061E0C8010E9459
:1013B0000109882349F0DD2389F0CE296C2FC8016B
:1013C0000E9470098C1759F2DF91CF911F910F91F4
:1013D000FF90EF90DF90CF90BF900895E094CE21E2
:1013E000EDCF60E0C8010E940109882369F3CE2196
:1013F000DD2319F0C111B3CFE7CFCC2309F4AFCF70
:10140000E3CFAF92BF92DF92EF92FF920F931F93C1
:10141000CF93DF937C01162FC42FD22ED42FD07EF2
:101420008091CA0187FF2CC0D03EC1F5A090CB01AE
:10143000AA20A1F1B12CC5010E940908D82FC5012D
:1014400001960E940908982F8D2FE816F90631F5AC
:101450006C2F70E0762F6627662773706D296F5F9B
:101460007F4F26E834E0402F8C2FDF91CF911F91E2
:101470000F91FF90EF90DF90BF90AF900C94930985
:1014800080FD33C0D03609F464C090F4D03209F442
:1014900049C0D03409F45DC0DD2381F1DF91CF91E3
:1014A0001F910F91FF90EF90DF90BF90AF90089544
:1014B000D03A09F484C090F42C2F2F7141E0D03839
:1014C00069F7612FC701DF91CF911F910F91FF90B5
:1014D000EF90DF90BF90AF900C949004D03C09F453
:1014E00075C0D03E09F4B4CFD9CF0E940B088E1539
:1014F0009F0541F2E114F10429F2D0CF8C2F8E70B8
:1015000069F680E090E0892B49F28C2F8170DF91A1
:10151000CF911F910F91FF90EF90DF90BF90AF9010
:101520000C940000CF71CF3109F0B8CF4D2D4F771B
:1015300061F0413061F02D2D221F2227221F0DE185
:10154000612FC7010E944905A9CF41E0F4CF40E0D7
:10155000F2CF2C2F30E08C2F8F71813029F030F0BA
:10156000803121F0813109F540E001C041E095E092
:10157000359527959A95E1F721700DE1612FC70107
:101580000E94490580E090E0892B09F487CF4C2F19
:10159000612FC701DF91CF911F910F91FF90EF90C5
:1015A000DF90BF90AF900C940000C901880F991F85
:1015B0008E71C4FB442740F9482B4250D8CF2C2FC2
:1015C0002F7043E0C4FF7DCF42E07BCFCF71CE319F
:1015D00031F0CF3109F062CF2D2D45E072CF2D2DA6
:1015E00044E06FCF4F925F926F927F928F929F9263
:1015F000AF92BF92CF92DF92EF92FF920F931F9321
:10160000CF93DF93C091A801D091A90180919B0154
:10161000811116C02FB7F8948091B0019091B1015B
:10162000A091B201B091B3012FBF80939701909325
:101630009801A0939901B0939A0181E080939B0156
:1016400080918F01811111C00E94EF0160517109D9
:101650008109910960938B0170938C0180938D01B6
:1016600090938E0181E080938F010E94EF012B0106
:101670003C018FB7F894C090B001D090B101E090D8
:10168000B201F090B3018FBF80919701BC2CB81AC2
:1016900080918B0190918C019201281B390BC9011B
:1016A00020918A01211169C0FE0130E020E04581CE
:1016B0005681C417D50709F056C045E0429F800106
:1016C000439F100D11240E5F1F4F0C0F1D1F109311
:1016D0008901009388010115110509F458C0F8012A
:1016E000148213828031910508F492C1853F9140A4
:1016F00008F0B4C18D8D9E8D0E945504F801808341
:1017000081E080938A0140928B0150928C0160921B
:101710008D0170928E01F6E0FB1508F47DC18D8D70
:101720009E8D0E945504A0908801B09089019091EF
:101730008A01E92FE695E695E695292F277041E085
:1017400050E060E070E004C0440F551F661F771F33
:101750002A95D2F7EA0DFB2DF11D811129C0409584
:101760008081482327C02F5F3F4F359625303105B4
:1017700009F09DCF10E000E0AACF26E02B1508F479
:101780004BC18031910518F0853F914040F2DF91C7
:10179000CF911F910F91FF90EF90DF90CF90BF906E
:1017A000AF909F908F907F906F905F904F90089533
:1017B0008081482B408381E0890F80938A01409289
:1017C0008B0150928C0160928D0170928E01982F46
:1017D0009770E9F68031E9F4F5018081873780F46C
:1017E000EB8DFC8D309721F4BC8EAB8E07C0FC01D5
:1017F000838194810097D9F7B482A38210928A01E1
:10180000C0929701D0929801E0929901F0929A01CA
:10181000BECF8831A9F7F50111811F778DEF782EA2
:10182000710EF7E2F71580F088818130A1F4812EE6
:10183000912C1D3220F51B3228F4112351F121E0A7
:10184000271508F18DE026C085ED810F883250F410
:101850008881823061F3E0918801F0918901D4831D
:10186000C383CCCF8DEA810F883220F48881833006
:1018700091F7DDCF8EEF810F8230C8F6ECCF8DEA85
:10188000810F8230F8F2C4018F579C4F0E945B0891
:1018900001C08881F501028190819B3739F19F3722
:1018A00009F46CC09737B9F60813D5CF61E08D8D78
:1018B0009E8D0E946A048D8D9E8D0E94920F8FE6F0
:1018C00097E10197F1F700C00000AD8DBE8D149631
:1018D000ED91FC911597808111969C91892B8083C5
:1018E00060E08D8D9E8D0E946A04B5CF202F2870F8
:1018F000302F377004FF35C01D3278F51B3208F0E9
:10190000AACF91E0971508F0A6CF41E050E060E043
:1019100070E004C0440F551F661F771F3A95D2F739
:10192000182F142B211103C0142F10951823612F89
:10193000C4018F579C4F0E94980818138CCF61E008
:101940008D8D9E8D0E946A048D8D9E8D0E94920FBA
:10195000EFE6F7E13197F1F7B6CF13551230A8F65D
:101960007ACF90E002C0959587953A95E2F781701D
:1019700099272817190609F06ECF98CF1B32D9F195
:1019800090F51330C1F1143009F465CF602FC40114
:101990008F579C4F0E94980808131FC061E08D8DDF
:1019A0009E8D0E946A048D8D9E8D0E94920F8FE6FF
:1019B00097E10197F1F700C00000AD8DBE8D149640
:1019C000ED91FC911597808111969C91892B8083D4
:1019D00060E08D8D9E8D0E946A0411113CCF043011
:1019E00078F4088338CF133531F0143509F433CF48
:1019F0001C3261F630CF083081F70E94E0089FCF9B
:101A000061E081E893E00E94980881E0888323CF19
:101A1000F6E0FB1508F0BBCE99E09B1508F0B7CEB9
:101A2000C0929701D0929801E0929901F0929A01A8
:101A300000918801109189018D8D9E8D0E94550421
:101A4000F801808381E080938A0140928B0150925B
:101A50008C0160928D0170928E0199CE26E02B153B
:101A6000D8F295CE9F92AF92BF92CF92DF92EF9233
:101A7000FF920F931F93CF93DF937C016B01942E02
:101A800081E0F701481328C0A280B380E7012196C6
:101A9000A114B10431F562E070E081E090E00E94B1
:101AA000AF118C01009731F0FC01D182C082888196
:101AB0008F5F8883F1E09F1242C0F7011383028396
:101AC000DF91CF911F910F91FF90EF90DF90CF901A
:101AD000BF90AF909F900895A580B680E7012496AF
:101AE000D7CF88818F5F8883C82FD0E062E070E015
:101AF000CE010E94AF118C0120E0AE01415051098E
:101B0000822F90E08417950764F0C150D048CC0F25
:101B1000DD1FC00FD11FD982C882C5010E94671284
:101B2000C9CF880F991FF501E80FF91F60817181F6
:101B3000800F911FFC01718360832F5FE1CFF7015C
:101B400016830583BDCF1F920F920FB60F921124FB
:101B50002F933F938F939F93AF93BF938091B00147
:101B60009091B101A091B201B091B3013091A30164
:101B700023E0230F2D3768F126E8230F0296A11DDD
:101B8000B11D2093A3018093B0019093B101A09364
:101B9000B201B093B3018091A4019091A501A091ED
:101BA000A601B091A7010196A11DB11D8093A401CA
:101BB0009093A501A093A601B093A701BF91AF9107
:101BC0009F918F913F912F910F900FBE0F901F907B
:101BD00018950196A11DB11DD4CF1F920F920FB67B
:101BE0000F9211240BB60F922F933F934F935F9355
:101BF0006F937F938F939F93AF93BF93EF93FF93D5
:101C0000E0914401F09145010995FF91EF91BF9159
:101C1000AF919F918F917F916F915F914F913F9184
:101C20002F910F900BBE0F900FBE0F901F90189525
:101C30001F920F920FB60F9211240BB60F922F9393
:101C40003F934F935F936F937F938F939F93AF9344
:101C5000BF93EF93FF93E0914201F0914301099507
:101C6000FF91EF91BF91AF919F918F917F916F9174
:101C70005F914F913F912F910F900BBE0F900FBE30
:101C80000F901F9018951F920F920FB60F9211246C
:101C90000BB60F922F933F934F935F936F937F9366
:101CA0008F939F93AF93BF93EF93FF93E091400186
:101CB000F09141010995FF91EF91BF91AF919F91F3
:101CC0008F917F916F915F914F913F912F910F90E5
:101CD0000BBE0F900FBE0F901F9018951F920F9282
:101CE0000FB60F9211240BB60F922F933F934F9381
:101CF0005F936F937F938F939F93AF93BF93EF9374
:101D0000FF93E0913E01F0913F010995FF91EF9122
:101D1000BF91AF919F918F917F916F915F914F9103
:101D20003F912F910F900BBE0F900FBE0F901F9001
:101D300018951F920F920FB60F9211240BB60F92A7
:101D40002F933F934F935F936F937F938F939F93C3
:101D5000AF93BF93EF93FF93E0913C01F0913D016E
:101D60000995FF91EF91BF91AF919F918F917F91D5
:101D70006F915F914F913F912F910F900BBE0F90FC
:101D80000FBE0F901F9018951F920F920FB60F92D3
:101D900011240BB60F922F933F934F935F936F9342
:101DA0007F938F939F93AF93BF93EF93FF93E091B4
:101DB0003A01F0913B010995FF91EF91BF91AF91ED
:101DC0009F918F917F916F915F914F913F912F9153
:101DD0000F900BBE0F900FBE0F901F9018951F9283
:101DE0000F920FB60F9211240BB60F922F933F93C1
:101DF0004F935F936F937F938F939F93AF93BF9313
:101E0000EF93FF93E0913801F09139010995FF912B
:101E1000EF91BF91AF919F918F917F916F915F9162
:101E20004F913F912F910F900BBE0F900FBE0F90CF
:101E30001F9018951F920F920FB60F9211240BB698
:101E40000F922F933F934F935F936F937F938F9353
:101E50009F93AF93BF93EF93FF93E0913601F0917F
:101E600037010995FF91EF91BF91AF919F918F91AC
:101E70007F916F915F914F913F912F910F900BBE8A
:101E80000F900FBE0F901F9018951F920F920FB6D4
:101E90000F9211240BB60F922F933F934F935F93A2
:101EA0006F937F938F939F93AF93BF93CF93DF9362
:101EB000EF93FF937894CCE4D1E0E991F99180819C
:101EC00087FF08C08F77209182019181921720F1BE
:101ED0000E94540681E0C238D80779F786E984BDAC
:101EE000809182018F5F8032D1F080938201FF91D7
:101EF000EF91DF91CF91BF91AF919F918F917F91A2
:101F00006F915F914F913F912F910F900BBE0F906A
:101F10000FBE0F901F9018950E949305DBCF109273
:101F20008201E5CFDC011496ED91FC91159790812B
:101F300011968C918095892380830895789483B736
:101F40008C6483BF87B7816087BF82E08EBD8EB50A
:101F500081608EBD8FB581608FBD85B5846085BD84
:101F600085B5806485BD80918A00836080938A00F6
:101F700080918B00816080938B0087E886B91AB8C6
:101F80000FB6F894A89581B5886181BD11BC0FBECC
:101F90001ABA17BA14BA11BA12B810926100109294
:101FA000640061E081E00E94B301EDE8F0E094910B
:101FB000EFE5F2E02491E4EAF2E08491882341F134
:101FC0009923C1F091509C30A8F4E92FF0E0E5513D
:101FD000F04F0C94A6116F116F11FA0FF70F5711F4
:101FE0005A115D11FA0FFA0F611167116B119FB54C
:101FF0009F779FBDE82FF0E0EE0FFF1FE25CFD4FE3
:10200000A591B4918FB7F894EC912E2B2C938FBFA0
:102010008091640080618093640080916100886099
:102020008093610080916100806180936100809164
:102030006100806280936100809161008064809380
:102040006100D09AB89A80916100826080936100AB
:10205000159A149AD79AD69AD59AD49AD39ABE9AA0
:10206000BC9ABD9ABF9A80916100846080936100A0
:10207000139AA09A8091640082608093640080919A
:1020800064008160809364008F9A8E9AA59A8091F3
:102090006100816080936100D0E0C0E0FE01EF53F9
:1020A000FF4F6491CE010E9488112196CD3221E02C
:1020B000D207A1F761E081E893E00E948811C0E0B7
:1020C000CF5F8C2F0E945406CB31D1F714BC15BCC6
:1020D00085B5887F85BD87B7806487BF85B58360F8
:1020E00085BD8EEEA82E81E0B82E9CE4E92E91E00D
:1020F000F92E670127E0922EF50105911491C80190
:102100000E948011C82FC80101960E948011D82F0B
:102110000E5F1F4FC8010E948011803228F06FE1CE
:10212000C8010E9499118FE1D6010D911D916D0199
:10213000F8018183D03809F4D6C0D13809F4DBC066
:10214000D1110FC0C99DE0011124CC51DE4F41E0F7
:10215000B801CE010E94320D40E0B801CE010E94CC
:10216000320DF2E0AF0EB11C22E8C21621E0D20619
:1021700009F0C2CF85E190E00E94801180FF05C088
:102180009091EB0194609093EB0181FF05C09091D9
:10219000F20194609093F20182FF05C09091F901E1
:1021A00094609093F90183FF05C0909100029460C0
:1021B0009093000284FF05C0909107029460909371
:1021C000070285FF05C090910E02946090930E0265
:1021D00086FF05C09091150294609093150287FFC9
:1021E00005C080911C02846080931C0286E190E00F
:1021F0000E94801180FF05C09091E401946090934B
:10220000E40182FF05C09091230294609093230221
:1022100083FF05C090912A02946090932A0284FF64
:1022200005C09091310294609093310285FF05C002
:102230009091380294609093380286FF05C0909187
:102240003F02946090933F0287FF05C08091460251
:10225000846080934602D701ED91FD917D018081DC
:102260008F7780830E949305B2E8EB16B1E0FB06FE
:1022700091F707EC13E0C4EED1E0CE010E943907DC
:10228000CE010E948B07EFEFF9E628E1E150F04024
:102290002040E1F700C00000CE010E944C06CE01B4
:1022A0000E94430627960C171D0739F7E4CF9FB508
:1022B0009F7D9FCE9FB5977F9CCE95B59F7D95BD09
:1022C00099CE90918B009F7790938B0093CE9091B5
:1022D0008B009F7DF9CF90918B00977FF5CF93B7BF
:1022E0009F7D93BF87CEC99DC001112440E0B801F6
:1022F0008C519E4F34CFC99DC001112441E0F7CFCE
:10230000E199FECF9FBB8EBBE09A99278DB30895CC
:10231000262FE199FECF9FBB8EBBE09A01970DB2AD
:10232000021631F02DBB0FB6F894E29AE19A0FBE77
:102330000895262FE199FECF9FBB8EBB2DBB0FB614
:10234000F894E29AE19A0FBE01960895EE0FFF1FEE
:102350000024001C0BBE0790F691E02D09940F930A
:102360001F93CF93DF93869F8001879F100D969FC9
:10237000100D1124C8010E94CB11EC01009729F027
:10238000A80170E060E00E94F012CE01DF91CF91D1
:102390001F910F9108950F931F93CF93DF93823076
:1023A000910510F482E090E0E091E303F091E40302
:1023B00030E020E0B0E0A0E0309799F4211531053D
:1023C00009F44AC0281B390B24303105D8F58A811D
:1023D0009B816115710589F1FB0193838283FE0165
:1023E00011C0408151810281138148175907E0F0E3
:1023F0004817590799F4109761F012960C931297A9
:1024000013961C933296CF01DF91CF911F910F91BC
:1024100008950093E3031093E403F4CF21153105ED
:1024200051F04217530738F0A901DB019A01BD01B1
:10243000DF01F801C1CFEF01F9CF9093E40380935E
:10244000E303CDCFFE01E20FF31F8193919322505E
:10245000310939832883D7CF2091E1033091E203FA
:10246000232B41F420914801309149013093E2033C
:102470002093E10320914601309147012115310558
:1024800041F42DB73EB740914A0150914B01241BB6
:10249000350BE091E103F091E203E217F307A0F4BA
:1024A0002E1B3F0B2817390778F0AC014E5F5F4FAA
:1024B0002417350748F04E0F5F1F5093E2034093F7
:1024C000E103819391939FCFF0E0E0E09CCFCF9325
:1024D000DF930097E9F0FC01329713821282A091FA
:1024E000E303B091E403ED0130E020E01097A1F4A4
:1024F00020813181820F931F2091E1033091E2030B
:102500002817390709F061C0F093E203E093E10373
:10251000DF91CF910895EA01CE17DF07E8F54A81F0
:102520005B819E0141155105B1F7E901FB83EA8307
:1025300049915991C40FD51FEC17FD0761F48081B3
:1025400091810296840F951FE90199838883828186
:1025500093819B838A83F0E0E0E012968D919C91B9
:1025600013970097B9F52D913C911197CD010296E3
:10257000820F931F2091E1033091E203281739075E
:1025800039F6309751F51092E4031092E303B093BB
:10259000E203A093E103BCCFD383C2834081518186
:1025A000840F951FC817D90761F44E5F5F4F88816C
:1025B0009981480F591F518340838A819B8193835E
:1025C00082832115310509F0B0CFF093E403E09345
:1025D000E3039ECFFD01DC01C0CF13821282D7CF6F
:1025E000DC0101C06D9341505040E0F70895F8942C
:0225F000FFCF1B
:1025F2001BFF1AFF19FF18FF17FF16FF15FF14FF25
:1026020013FF12FF11FF10FF0FFF0EFF0DFF0CFF54
:102612000BFF0AFF09FF08FF07FF06FF05FF04FF84
:1026220003FF02FF01FF540400000000000000004D
:102632000000000000000000E503800034013201C8
:1026420030012E012C012A01280126012401220138
:1026520020011E011C011A011801160114011201A8
:1026620010010E010C010A01080106010401020118
:02267200000165
:00000001FF
