:100000000C943D010C94F50B0C94CA0B0C949F0BB3
:100010000C94740B0C94490B0C941E0B0C94F30A67
:100020000C94C80A0C9467010C94EB0D0C946701B6
:100030000C9467010C9467010C9467010C946701A0
:100040000C947E0A0C9467010C9467010C94670170
:100050000C9467010C9467010C9467010C94670180
:100060000C9467010C9467010C9467010C94670170
:100070000C9467010C94500D0C9467010C9467016B
:100080000C9467010C94200C0C9467013F03000052
:10009000000000120D0000000000000101C08000FF
:1000A000000000000000000000060000000000004A
:1000B0000000000000000000000000000000000040
:1000C000000000000000FF0300000000000000002E
:1000D0000000000000000000000000000000000020
:1000E0000000000000000000000000000000000010
:1000F00000000000000000000000000002001400EA
:10010000030014000400140005001400060014008D
:100110000700140008001400090014000A0014006D
:100120000B0010000C0010000D0010000E0010005D
:100130000F0010001000100011001000120010003D
:100140001300100014001400150014000100140026
:10015000010014000100140001001400010014004B
:1001600000801F0000811F00FF000000FF00000052
:10017000FF000000FF000000FF000000FF00000083
:10018000FF000000FF000000FF000000FF00000073
:10019000FF000000FF000000FF0000000000000062
:1001A000000000000000000000000000000000004F
:1001B00000000000000000000000003A003700349A
:1001C00000310022006100640000003B003800356F
:1001D00000320023006200650005050505050505E0
:1001E00005020202020202020207070404040404D8
:1001F00004040407070303030303030303070101C4
:1002000001010101010106060606060606060102B5
:1002100004081020408001020408102040800810CB
:10022000010204081020408001020102040810208D
:1002300040800480402010080402010102040810DC
:100240002040800000000A0B0C00000000000001AC
:10025000040506000000000000000000000000008F
:10026000000000000000000000000000000000008E
:100270000000000000000000380E11241FBECFEF68
:10028000D0E1DEBFCDBF11E0A0E0B1E0E6E1F1E2F8
:1002900000E00BBF02C007900D92A639B107D9F755
:1002A00022E0A6E9B1E001C01D92A03AB207E1F751
:1002B00011E0CDE3D1E004C02197FE010E94380F88
:1002C000CC33D107C9F70E94490E0C9489100C94C5
:1002D000000090918F0281E0913208F043C080913C
:1002E0006B028111FCCF80918E0222E020936B0281
:1002F00021E020936A022FEF209369022EE632E07C
:100300003093680220936702109266029093650210
:100310001092640290916402880F892B809364028A
:1003200080916302813029F510926302809164020A
:10033000809373008091740083FDF8CF85EC8093E7
:10034000740080916B028230E1F3809169028F3FEB
:1003500091F080916902803281F08091690280334E
:1003600071F084E010926D0210928F0210926C0274
:10037000089585EEE4CF80E0F5CF82E0F3CF83E00F
:10038000F1CF90E0FC01ED5BFD4F2491FC01E25FB9
:10039000FD4F349187529E4FFC018491882341F197
:1003A0002223C1F021502C30A8F4E22FF0E0E552D6
:1003B000FE4F0C94380F11021102EA01E701F90116
:1003C000FC01FF01EA01EA01030209020D029FB5E7
:1003D0009F779FBDE82FF0E0EE0FFF1FE753FE4F22
:1003E000A591B4918FB7F894EC913E2B3C938FBFBD
:1003F00008959FB59F7DEDCF9FB5977FEACF95B5C7
:100400009F7D95BDE7CF90918B009F7790938B0058
:10041000E1CF90918B009F7DF9CF90918B00977FDA
:10042000F5CF93B79F7D93BFD5CFE82FF0E0E75B83
:10043000FD4F8085861739F06087618B80914B0274
:10044000836080934B020895262F30E090914F02F5
:100450009078691729F090914B029C6090934B0221
:100460003695322F222737952795822B80934F027E
:10047000809350020895E0912702F091280230976E
:1004800029F010926D0210928F0209940895CF9373
:10049000DF93AC01E0912502F09126023097F1F054
:1004A00090912402809123029817C0F090E0292FA8
:1004B00030E02617370754F4D901A056BE4F240F59
:1004C000351FE90128812C939F5FF1CF1092240200
:1004D00060932302CB01DF91CF910994DF91CF91FB
:1004E000089508958091230290912402891B990B0D
:1004F000089585ED809374008091740084FDFCCF95
:1005000010926B0208952091E001260F3327331FCC
:1005100021323105ECF420916B02FC0190E080E087
:10052000243069F082E00895A091E0012191AC01AE
:1005300040545E4FA40FB52FB11D2C930196861722
:1005400098F38091E001680F6093E00180E00895E6
:1005500081E008950895E091240280912302E81734
:1005600030F4F0E0E056FE4F808190E008958FEF88
:100570009FEF089590912402809123022FEF3FEF87
:10058000981748F4E92FF0E0E056FE4F208130E064
:100590009F5F90932402C9010895CF92DF92EF925A
:1005A000FF920F931F93CF93DF937C01CB018A01BE
:1005B00020916C02222389F0EB016B01C40ED51E41
:1005C000CC15DD0569F06991D701ED91FC910190A1
:1005D000F081E02DC7010995F3CF642F0E948302BB
:1005E000C801DF91CF911F910F91FF90EF90DF90A5
:1005F000CF900895CF93DF931F92CDB7DEB7698375
:1006000020916C022223F9F020918F02203258F0C1
:1006100021E030E0FC013383228390E080E00F9002
:10062000DF91CF91089580916D02E82FF0E0E259BB
:10063000FD4F998190838F5F80936D0280938F022D
:1006400081E090E0ECCF61E0CE0101960E94830250
:10065000F7CF1F93CF93DF93C7E1D2E01881698171
:1006600080E992E00E94FA02612F80E992E00E9404
:10067000FA026A8180E992E0DF91CF911F910C9498
:10068000FA0290E080E0089580E090E0892B29F064
:100690008091480283FD0C9400000895009731F189
:1006A00060914C0270914D028617970709F06DC05A
:1006B00041504A30D8F4E42FF0E0EF59FC4F0C944D
:1006C000380F6B037703820392039903A003A703F8
:1006D000AE03B503BD0380915102281739F0209372
:1006E000510280914B02816080934B02089590915A
:1006F000520280EF820F292B28239217B9F32093FF
:100700005202EFCF3091520240E1249FC0011124E8
:10071000832B2295207F215F8223381739F3809322
:100720005202DFCF80915302281701F32093530226
:10073000D8CF809154022817C9F220935402D1CF08
:1007400080915502281791F220935502CACF8091CB
:100750005602281759F220935602C3CF80915702B0
:10076000281721F220935702BCCF809158022817F6
:1007700009F4BCCF20935802B4CF809159022817B6
:1007800009F4B4CF20935902ACCF30914E023F7799
:100790003817190609F0AACF4230A1F018F44130F9
:1007A00031F008954330D1F0443049F108958091FB
:1007B0005A02281709F49ACF20935A0280914B02CB
:1007C000826092CF90915B0280EF820F292B2823C9
:1007D000921709F48BCF20935B02F0CF30915B022C
:1007E00040E1249FC0011124832B2295207F215FAB
:1007F0008223381709F47ACF80935B02DFCF809190
:100800005C02281709F472CF20935C02D7CF0F93B4
:10081000009721F160914C0270914D028617970765
:1008200029F5822F90E030914F023078231729F07C
:1008300020914B02246020934B020D3189F00F3739
:1008400079F00F3081F49C013695322F22273795AD
:10085000279580914F02822B80934F020F9108952C
:1008600040934F02F0CF10924F02EDCF30914E02E5
:100870003F773817190691F7822F90E03091500298
:100880003078231729F020914B02286020934B02E7
:100890009695982F882797958795482B40935002D7
:1008A000DDCF81508B3108F026C0E82FF0E0E55A0B
:1008B000FB4F0C94380F76047C0480048404880475
:1008C0008A048C04900492049404960498049A0474
:1008D0009C049E04A004A204A404A604AA04AC04DC
:1008E000AE04B404B804BA04BC04BE04809162002F
:1008F000877F809362000895809162008F7EF9CF98
:10090000809162008F7DF5CF809162008F7BF1CF67
:10091000D8980895C0980895809162008D7FE9CF9E
:100920001D9808951C980895DF980895DE980895FD
:10093000DD980895DC980895DB980895C698089589
:10094000C4980895C5980895C79808958091620045
:100950008B7FCFCF1B980895A8980895809165004C
:100960008D7F809365000895809165008E7FF9CF1B
:100970009798089596980895AD980895809162008B
:100980008E7FB7CF1F93CF93DF93EC018A819B813A
:1009900010E0892BE9F48D819E8110E0892B69F5A7
:1009A00088818E7F8883DF91CF911F910895812F59
:1009B00090E0880F991FEA81FB81E80FF91F0190F1
:1009C000F081E02D80818F7780830E9451041F5F2A
:1009D0008981181760F3DFCF812F90E0880F991F6E
:1009E000ED81FE81E80FF91F0190F081E02D8081FB
:1009F0008F7780830E9451041F5F8C81181760F3EA
:100A0000CFCFFC0190819570953019F4CF010C94F3
:100A1000C2040895FC01208120FF03C022FF0C9432
:100A2000C204089581508B3108F026C0E82FF0E011
:100A3000E45EFA4F0C94380F37053D054105450536
:100A400049054B054D0551055305550557055905F4
:100A50005B055D055F0561056305650567056B055C
:100A60006D056F05750579057B057D057F05809111
:100A700062008860809362000895809162008061C6
:100A8000F9CF809162008062F5CF8091620080642E
:100A9000F1CFD89A0895C09A08958091620082603B
:100AA000E9CF1D9A08951C9A0895DF9A0895DE9A59
:100AB0000895DD9A0895DC9A0895DB9A0895C69A00
:100AC0000895C49A0895C59A0895C79A0895809183
:100AD00062008460CFCF1B9A0895A89A08958091F0
:100AE0006500826080936500089580916500816053
:100AF000F9CF979A0895969A0895AD9A089580919E
:100B000062008160B7CF90914B02882361F09061C1
:100B100090934B0281E00E94120580918A00887FA9
:100B200080938A0008959F7E90934B0281E00E94FB
:100B30005104109288001092890080918A0084608C
:100B4000EFCFCF93C82F809131028C1719F08C2FE3
:100B50000E948305C0933102CC23F9F02FB7F8949B
:100B600080912B0290912C02A0912D02B0912E0227
:100B70002FBF482F392F2A2F8B2F409332023093CB
:100B800033022093340280933502809131028C1716
:100B900049F08C2FCF910C94830540E030E020E0A9
:100BA00080E0EBCFCF9108950F931F93CF938C01EB
:100BB000C0E0F8018181C81720F0CF911F910F91FB
:100BC00008958C2F90E0880F991FD8011296ED910F
:100BD000FC91E80FF91F0190F081E02D8081982FA2
:100BE000906890838F770E941205CF5FE2CF1F93AA
:100BF000CF93DF93EC012881322F357099F4322F97
:100C00003160388321FF09C02A813B81232B51F0B9
:100C1000DF91CF911F910C94D4052D813E8110E07E
:100C2000232BB9F4DF91CF911F910895812F90E08C
:100C3000880F991FED81FE81E80FF91F0190F08167
:100C4000E02D8081982F906890838F770E94120505
:100C50001F5F8C81181750F3E5CFCF93DF93EC0122
:100C60008881982F9270691789F0662369F08260F5
:100C70008883888180FF0AC0CE010E940A05CE01C8
:100C8000DF91CF910C94F7058D7FF2CFDF91CF915B
:100C900008951F93CF93DF93EC01288120FD15C0A9
:100CA00022FF13C0322F3160388321FF09C02A810F
:100CB0003B81232B51F0DF91CF911F910C94D405F0
:100CC0002D813E8110E0232BB9F4DF91CF911F914C
:100CD0000895812F90E0880F991FED81FE81E80F24
:100CE000F91F0190F081E02D8081982F906890830A
:100CF0008F770E9412051F5F8C81181750F3E5CF84
:100D0000CF93DF93EC018881982F9270691789F057
:100D1000662369F082608883888180FF0AC0CE01E3
:100D20000E940105CE01DF91CF910C9449068D7F81
:100D3000F2CFDF91CF910895E5E6F0E08081806108
:100D400080838FE79EE30197F1F700C00000808168
:100D50008F7E808308950C949C061F93CF93DF931E
:100D6000EC0180914B0284FF0BC08FE090E00E9469
:100D70001F0F182F80E190E00E941F0F181306C06C
:100D8000CE01DF91CF911F910C941F0FFFCF0C94D8
:100D9000AD06CF93DF9320914502309146022F3F5D
:100DA000320721F0C901DF91CF9108958091480267
:100DB00087FF2BC086FF0FC089E090E00E94C70626
:100DC000C82F81E090E00E94C7069C2F90934602B6
:100DD0008093450215C089E090E00E94C706C82FA5
:100DE00081E090E00E94C70690E4C99F9001112421
:100DF000207C31708F73282B30934602209345025C
:100E00008091450290914602CECF85FF0CC081E1D2
:100E100090E00E94C706C82F82E190E00E94C706BA
:100E2000C05CDD0BD2CF81E090E00E94C70690E06D
:100E3000CDCFCF93863823E0920719F138F481386B
:100E400023E09207D9F0CF910C941F0F873823E04D
:100E50009207D1F0883823E09207A9F786E893E05B
:100E60000E941F0FC82F87E893E00E941F0F90E099
:100E70002FEFC29F800D911D1124E5CF81E893E0F3
:100E8000E2CF86E893E0DFCF87E893E0DCCF0F93F3
:100E90001F93CF93DF93EC01162FC63883E0D8075A
:100EA00081F150F4C13883E0D807F9F0612FCE0109
:100EB0000E94270FCE011FC0C73883E0D80741F139
:100EC000C83883E0D80791F786E893E00E941F0FA7
:100ED000082F87E893E00E941F0FC82FD0E08FEF04
:100EE000089FC00DD11D1124E1CF81E893E00E943D
:100EF000270F81E893E0DF91CF911F910F910C9420
:100F00001F0F86E893E00E94270F86E893E0F3CF57
:100F100087E893E00E94270F87E893E0ECCFCF9318
:100F2000DF930FB6F894A89581B5886181BD11BC97
:100F30000FBED0E0C0E0FE01E457FF4F6491CE0148
:100F40000E94270F2196CD3281E0D807A1F761E0FA
:100F500081E893E00E94270FC0E0CF5F8C2F0E94B2
:100F60001205CB31D1F788E19EE00FB6F894A89531
:100F700081BD0FBE91BDDF91CF9108950C948F0775
:100F80001F93CF93DF93209136012223C1F02FEFDF
:100F90003FEF309306022093050230930A0220931C
:100FA000090230930E0220930D0230931202209317
:100FB00011023093160220931502109236018230EE
:100FC0009105C9F08330910509F458C020E030E064
:100FD000232B11F00E9400008091230290912402A3
:100FE000891B990B181619060CF044C080E992E091
:100FF0000E94BA02F1CFE3E0F2E0D0E0C0E08281EB
:1010000093810196E9F4CC0FDD1FCC0FDD1FCD5F7E
:10101000DD4F1B821A8280E992E00E94BA02888327
:1010200080E992E00E94BA028983E0912902F0915E
:101030002A023097C9F4D0932A02C09329021AC019
:1010400021963496C530D105D1F680912302909136
:101050002402891B990B1816190664F480E992E0A2
:101060000E94BA02F2CFFC01828193810097D9F7E6
:10107000D383C283DF91CF911F91089580E992E0DD
:101080000E94BA02182F80E992E00E94BA02D12F82
:1010900090E0C92FC80FD11DD0931802C09317023A
:1010A00080E992E00E94BA02682F80931902CE0173
:1010B000D7FF21C09F779093180280931702883042
:1010C000910561F0843823E0920741F08C3A23E0E7
:1010D000920721F0843D23E0920741F481E86830D3
:1010E00039F4DF91CF911F910C948F070E9447072D
:1010F00080931902BFCF0E941907FACF1F93CF9395
:10110000DF93EC01162F089779F4662319F10E94FA
:101110008F0780E090E0892BB9F0612FCE01DF913D
:10112000CF911F910C94000080E090E0892BA9F7EB
:1011300081E0C11590E1D90708F080E0111105C0E8
:10114000DF91CF911F91089581E027972297C0F7F3
:1011500080E0F6CF80E090E0892BF9F681E0F0CFD7
:101160000F931F93CF93DF93EC01162F80914B02C7
:1011700084FF25C0CF30D10561F48FE090E00E945C
:10118000270F8FE090E0DF91CF911F910F910C948A
:101190001F0F8FE090E00E941F0F082F80E190E06A
:1011A0000E941F0F08130AC0C730D10531F0C830A4
:1011B000D10529F4183049F0FFCFFFCFFFCF612FC1
:1011C000CE010E94270FCE01DECF0E948F0788E05C
:1011D000DF91CF911F910F9108950E94A105EFE239
:1011E000F2E081E087831086E8E3F2E088E0DF0147
:1011F0001D928A95E9F708958331910588F481312C
:10120000910530F48130910519F08930910531F460
:101210002FEF3FEF30934602209345020C94B00825
:101220008D319105D9F7677F6093480220912F0295
:101230002F73362F307C232B20932F02E9CFBF92C0
:10124000CF92DF92EF92FF920F931F93CF93DF9392
:101250008B01B42E690182FF23C083FF17C061E0B8
:10126000C8010E947E088823D9F16B2DC8010E9415
:10127000FC088B1135C0F601DF91CF911F910F91C2
:10128000FF90EF90DF90CF90BF90099460E0C8018D
:101290000E947E08882321F1C8010E94C706E9CF79
:1012A000842F8770C1E0D0E07E0101C0EE0C8A95EA
:1012B000EAF7D42FD870CB010E94C706C82FB4FE1E
:1012C0001CC061E0C8010E947E08882349F0DD232C
:1012D00089F0CE296C2FC8010E94FC088C1759F2A6
:1012E000DF91CF911F910F91FF90EF90DF90CF9002
:1012F000BF900895E094CE21EDCF60E0C8010E9438
:101300007E08882369F3CE21DD2319F0C111B3CF04
:10131000E7CFCC2309F4AFCFE3CFAF92BF92DF92F8
:10132000EF92FF920F931F93CF93DF937C01162FC1
:10133000C42FD22ED42FD07E80912F0287FF2CC0B5
:10134000D03EC1F5A0903002AA20A1F1B12CC50178
:101350000E94C706D82FC50101960E94C706982F84
:101360008D2FE816F90631F56C2F70E0762F662781
:10137000662773706D296F5F7F4F24E433E0402F41
:101380008C2FDF91CF911F910F91FF90EF90DF9005
:10139000BF90AF900C941F0980FD33C0D03609F484
:1013A00064C090F4D03209F449C0D03409F45DC06F
:1013B000DD2381F1DF91CF911F910F91FF90EF908D
:1013C000DF90BF90AF900895D03A09F484C090F4B4
:1013D0002C2F2F7141E0D03869F7612FC701DF91C1
:1013E000CF911F910F91FF90EF90DF90BF90AF9042
:1013F0000C944E03D03C09F475C0D03E09F4B4CF30
:10140000D9CF0E94C9068E159F0541F2E114F1045F
:1014100029F2D0CF8C2F8E7069F680E090E0892B76
:1014200049F28C2F8170DF91CF911F910F91FF9026
:10143000EF90DF90BF90AF900C940000CF71CF3150
:1014400009F0B8CF4D2D4F7761F0413061F02D2D6F
:10145000221F2227221F0DE1612FC7010E940704CE
:10146000A9CF41E0F4CF40E0F2CF2C2F30E08C2F19
:101470008F71813029F030F0803121F0813109F510
:1014800040E001C041E095E0359527959A95E1F758
:1014900021700DE1612FC7010E94070480E090E0F8
:1014A000892B09F487CF4C2F612FC701DF91CF9192
:1014B0001F910F91FF90EF90DF90BF90AF900C9431
:1014C0000000C901880F991F8E71C4FB442740F9A1
:1014D000482B4250D8CF2C2F2F7043E0C4FF7DCF34
:1014E00042E07BCFCF71CE3131F0CF3109F062CF06
:1014F0002D2D45E072CF2D2D44E06FCF1F920F921E
:101500000FB60F9211242F933F938F939F93AF9316
:10151000BF9380912B0290912C02A0912D02B0914B
:101520002E0230911E0223E0230F2D3768F126E8AA
:10153000230F0296A11DB11D20931E0280932B0242
:1015400090932C02A0932D02B0932E0280911A0248
:1015500090911B02A0911C02B0911D020196A11D49
:10156000B11D80931A0290931B02A0931C02B093AA
:101570001D02BF91AF919F918F913F912F910F903D
:101580000FBE0F901F9018950196A11DB11DD4CFCD
:101590001F920F920FB60F9211240BB60F922F933A
:1015A0003F934F935F936F937F938F939F93AF93EB
:1015B000BF93EF93FF93E0914501F09146010995A8
:1015C000FF91EF91BF91AF919F918F917F916F911B
:1015D0005F914F913F912F910F900BBE0F900FBED7
:1015E0000F901F9018951F920F920FB60F92112413
:1015F0000BB60F922F933F934F935F936F937F930D
:101600008F939F93AF93BF93EF93FF93E091430129
:10161000F09144010995FF91EF91BF91AF919F9196
:101620008F917F916F915F914F913F912F910F908B
:101630000BBE0F900FBE0F901F9018951F920F9228
:101640000FB60F9211240BB60F922F933F934F9327
:101650005F936F937F938F939F93AF93BF93EF931A
:10166000FF93E0914101F09142010995FF91EF91C3
:10167000BF91AF919F918F917F916F915F914F91AA
:101680003F912F910F900BBE0F900FBE0F901F90A8
:1016900018951F920F920FB60F9211240BB60F924E
:1016A0002F933F934F935F936F937F938F939F936A
:1016B000AF93BF93EF93FF93E0913F01F09140010F
:1016C0000995FF91EF91BF91AF919F918F917F917C
:1016D0006F915F914F913F912F910F900BBE0F90A3
:1016E0000FBE0F901F9018951F920F920FB60F927A
:1016F00011240BB60F922F933F934F935F936F93E9
:101700007F938F939F93AF93BF93EF93FF93E0915A
:101710003D01F0913E010995FF91EF91BF91AF918D
:101720009F918F917F916F915F914F913F912F91F9
:101730000F900BBE0F900FBE0F901F9018951F9229
:101740000F920FB60F9211240BB60F922F933F9367
:101750004F935F936F937F938F939F93AF93BF93B9
:10176000EF93FF93E0913B01F0913C010995FF91CC
:10177000EF91BF91AF919F918F917F916F915F9109
:101780004F913F912F910F900BBE0F900FBE0F9076
:101790001F9018951F920F920FB60F9211240BB63F
:1017A0000F922F933F934F935F936F937F938F93FA
:1017B0009F93AF93BF93EF93FF93E0913901F09123
:1017C0003A010995FF91EF91BF91AF919F918F9150
:1017D0007F916F915F914F913F912F910F900BBE31
:1017E0000F900FBE0F901F9018951F920F920FB67B
:1017F0000F9211240BB60F922F933F934F935F9349
:101800006F937F938F939F93AF93BF93EF93FF93C8
:10181000E0913701F09138010995FF91EF91BF9167
:10182000AF919F918F917F916F915F914F913F9178
:101830002F910F900BBE0F900FBE0F901F90189519
:101840001F920F920FB60F9211240BB60F922F9387
:101850003F934F935F936F937F938F939F93AF9338
:10186000BF93EF93FF9380917100887F803609F4D6
:101870004DC008F040C0883209F4A9C028F5803175
:1018800009F49DC0C8F4882309F407C1883009F41D
:1018900096C0FF91EF91BF91AF919F918F917F91F2
:1018A0006F915F914F913F912F910F900BBE0F90D1
:1018B0000FBE0F901F901895883109F488C08032B0
:1018C00041F78093690214C0803409F4A5C040F444
:1018D0008033B9F38833E9F68093690285ECBCC0A4
:1018E000803509F489C0883509F49EC0883489F6AA
:1018F0000E947902CECF883909F494C038F5883730
:1019000029F050F4883611F0803719F683E080937F
:101910006B021092020257C0883809F483C08039E4
:1019200019F0803809F0B5CF80910202803208F0BA
:1019300079C0E091020281E08E0F809302028091D3
:101940007300F0E0EE51FE4F80833DC0803B39F0E4
:10195000E0F4803A09F485C0883A09F09ACF84E02F
:1019600080936B021092E1011092E001E09121025C
:10197000F091220209958091E00181110FC081E070
:101980008093E0011092C00109C0803C09F4A6CF09
:10199000883C09F4A3CF883B09F07BCFE091E101BB
:1019A00081E08E0F8093E101F0E0E054FE4F8081F2
:1019B000809373009091E1018091E00131C08091AA
:1019C00064028093730085EC8093740062CF9091E1
:1019D0006602809165029817B8F580916702909130
:1019E0006802E091660221E02E0F20936602E80F64
:1019F000F92FF11D8081E5CF2091670230916802B7
:101A0000E091660281E08E0F809366028091730000
:101A1000E20FF32FF11D80839091660280916502A1
:101A2000981788F285E8D0CF20916702309168023C
:101A3000E091660281E08E0F8093660280917300D0
:101A4000E20FF32FF11D808380916A02811150CF44
:101A500081E08093630284EA8093740010926B02A9
:101A600018CF85EC8093740010926B028091020273
:101A7000803230F4E0910202F0E0EE51FE4F10822D
:101A80006091020270E0E0911F02F091200282EE6C
:101A900091E0099510920202FCCE1092690228CFC3
:101AA0001F920F920FB60F9211240BB60F92EF9266
:101AB000FF920F931F932F933F934F935F936F93D7
:101AC0007F938F939F93AF93BF93CF93DF93EF93C6
:101AD000FF930FB6F894A89581B5886181BD11BCBC
:101AE0000FBE789485B78F7D85BF10929F01C1E0AE
:101AF000D1E0D0936C02C0938E0210926D021092CE
:101B00008F020E946901811105C080919F018F5F42
:101B100080939F01CF5FCF3761F780919D019091B6
:101B20009E01009731F00E94F90F10929E011092D1
:101B30009D01D0919F01DD2371F161E070E08D2F57
:101B400090E00E94410F7C0190939E0180939D0143
:101B500010E0C1E001E000936C02C0938E0210928D
:101B60006D0210928F020E946901811105C0F70178
:101B7000E10FF11DC0831F5FCF5FCF3761F7D23018
:101B800050F080918A00887F80938A0080917D0048
:101B90008B7F80937D00109288001092890085B71A
:101BA000806285BFFF91EF91DF91CF91BF91AF919F
:101BB0009F918F917F916F915F914F913F912F9165
:101BC0001F910F91FF90EF900F900BBE0F900FBEE3
:101BD0000F901F9018951F920F920FB60F9211241D
:101BE0000BB60F922F933F934F935F936F937F9317
:101BF0008F939F93AF93BF93CF93DF93EF93FF9315
:101C00007894CDE4D1E0E991F991808187FF08C013
:101C10008F7720919C019181921720F10E941205EB
:101C200081E0C338D80779F786E984BD80919C01AB
:101C30008F5F8032D1F080939C01FF91EF91DF9113
:101C4000CF91BF91AF919F918F917F916F915F9154
:101C50004F913F912F910F900BBE0F900FBE0F90A1
:101C60001F9018950E945104DBCF10929C01E5CF84
:101C7000E0E9F2E01382128288EE93E0A0E0B0E0A7
:101C800084839583A683B78387E891E091838083DB
:101C90000895789483B78C6483BF87B7816087BFCA
:101CA00082E08EBD8EB581608EBD8FB581608FBDA7
:101CB00085B5846085BD85B5806485BD80918A00C9
:101CC000836080938A0080918B00816080938B0079
:101CD00087E886B91AB80FB6F894A89581B58861D7
:101CE00081BD11BC0FBE1ABA17BA14BA11BA12B814
:101CF0001092610010926400EFE0F2E02491EAEDAE
:101D0000F1E08491882399F090E0880F991FFC01FD
:101D1000E754FE4FA591B491FC01E753FE4F859126
:101D200094918FB7F894EC91E22BEC938FBF81E004
:101D30000E94C101109224021092230210926D029F
:101D400010928F0210926B0281E080936A021092CF
:101D5000630283E10E94C10182E10E94C10180917E
:101D600071008C7F8093710088E48093700085E41B
:101D7000809374008BE392E090932202809321027F
:101D800087E492E09093200280931F0282E0809388
:101D900072008CE08093700080EC97E090932602B4
:101DA0008093250289E293E0909328028093270292
:101DB0008091610088608093610080916100806102
:101DC00080936100809161008062809361008091C6
:101DD0006100806480936100D09AB89A809161001C
:101DE000826080936100159A149AD79AD69AD59AF0
:101DF000D49AD39ABE9ABC9ABD9ABF9A8091610038
:101E0000846080936100139AA09A8091640082603C
:101E100080936400809164008160809364008F9A55
:101E20008E9AA59A80916100816080936100C0E0E4
:101E3000CF5F8C2F0E941205CB31D1F7FFCFE199F4
:101E4000FECF9FBB8EBBE09A99278DB30895262FB6
:101E5000E199FECF9FBB8EBBE09A01970DB20216AF
:101E600031F02DBB0FB6F894E29AE19A0FBE0895B7
:101E7000EE0FFF1F0024001C0BBE0790F691E02D13
:101E800009940F931F93CF93DF93869F8001879FC1
:101E9000100D969F100D1124C8010E945D0FEC01DA
:101EA000009729F0A80170E060E00E948210CE0146
:101EB000DF91CF911F910F9108950F931F93CF93AF
:101EC000DF938230910510F482E090E0E0919E0271
:101ED000F0919F0230E020E0B0E0A0E0309799F46C
:101EE0002115310509F44AC0281B390B243031056E
:101EF000D8F58A819B816115710589F1FB01938376
:101F00008283FE0111C040815181028113814817F3
:101F10005907E0F04817590799F4109761F01296A5
:101F20000C93129713961C933296CF01DF91CF91A9
:101F30001F910F91089500939E0210939F02F4CF7A
:101F40002115310551F04217530738F0A901DB0183
:101F50009A01BD01DF01F801C1CFEF01F9CF9093E4
:101F60009F0280939E02CDCFFE01E20FF31F81936B
:101F700091932250310939832883D7CF20919C0235
:101F800030919D02232B41F42091490130914A0167
:101F900030939D0220939C0220914701309148018B
:101FA0002115310541F42DB73EB740914B015091B9
:101FB0004C01241B350BE0919C02F0919D02E2172D
:101FC000F307A0F42E1B3F0B2817390778F0AC015C
:101FD0004E5F5F4F2417350748F04E0F5F1F509339
:101FE0009D0240939C02819391939FCFF0E0E0E0AB
:101FF0009CCFCF93DF930097E9F0FC0132971382D7
:102000001282A0919E02B0919F02ED0130E020E08B
:102010001097A1F420813181820F931F20919C029F
:1020200030919D022817390709F061C0F0939D0295
:10203000E0939C02DF91CF910895EA01CE17DF076C
:10204000E8F54A815B819E0141155105B1F7E9012F
:10205000FB83EA8349915991C40FD51FEC17FD0703
:1020600061F4808191810296840F951FE901998323
:102070008883828193819B838A83F0E0E0E01296DB
:102080008D919C9113970097B9F52D913C911197E3
:10209000CD010296820F931F20919C0230919D02E8
:1020A0002817390739F6309751F510929F02109290
:1020B0009E02B0939D02A0939C02BCCFD383C283A7
:1020C00040815181840F951FC817D90761F44E5F75
:1020D0005F4F88819981480F591F518340838A81BE
:1020E0009B81938382832115310509F0B0CFF09352
:1020F0009F02E0939E029ECFFD01DC01C0CF1382C0
:102100001282D7CFDC0101C06D9341505040E0F7FF
:062110000895F894FFCFD2
:102116001BFF1AFF19FF18FF17FF16FF15FF14FF05
:1021260013FF12FF11FF10FF0FFF0EFF0DFF0CFF35
:102136000BFF0AFF09FF08FF07FF06FF05FF04FF65
:1021460003FF02FF01FF0171020000000000000012
:10215600000000000000000000A0028000340132F0
:102166000130012E012C012A012801260124012219
:102176000120011E011C011A011801160114011289
:102186000110010E010C010A0108010601040102F9
:1021960001000100000000FA02CD024103AA02720A
:0621A60002BA02AB0200C8
:00000001FF
