:100000000C946D010C94A8110C947D110C94521158
:100010000C9427110C94FC100C94D1100C94A61085
:100020000C947B100C9497010C949E130C949701E4
:100030000C9497010C9497010C9497010C949701E0
:100040000C9431100C9497010C9497010C94970127
:100050000C9497010C9497010C9497010C949701C0
:100060000C9497010C9497010C9497010C949701B0
:100070000C9497010C9403130C9497010C94970122
:100080000C9497010C94D3110C9497013F0300003A
:10009000000000120D0000000000000101C08000FF
:1000A000000000000000000000060000000000004A
:1000B0000000000000000000000000000000000040
:1000C000000000000000FF0300000000000000002E
:1000D0000000000000000000000000000000000020
:1000E0000000000000000000000000000000000010
:1000F00000000000000000000000000002001400EA
:10010000030014000400140005001400060014008D
:100110000700140008001400090014000A0014006D
:100120000B0010000C0010000D0010000E0010005D
:100130000F0010001000100011001000120010003D
:100140001300100014001400150014000100140026
:10015000010014000100140001001400010014004B
:1001600000801F0000811F00FF000000FF00000052
:10017000FF000000FF000000FF000000FF00000083
:10018000FF000000FF000000FF000000FF00000073
:10019000FF000000FF000000FF0000000000000062
:1001A000000000000000000000000000000000004F
:1001B0000000000000000000007000740078007C67
:1001C000008000840088008C009000940098009CBF
:1001D00000A000A400A800AC00B000B400B800BCAF
:1001E00000C000C400C800CC00D000D400D800DC9F
:1001F00000E000E400E800EC00F000F400F800FC8F
:10020000000001040108010C0100003A003700342D
:100210000031002200610064000000390036003324
:1002200000300021002000630000003B0038003552
:10023000003200230062006500050505050505057F
:100240000502020202020202020707040404040477
:100250000404040707030303030303030307010163
:100260000101010101010606060606060606010255
:10027000040810204080010204081020408008106B
:10028000010204081020408001020102040810202D
:10029000408004804020100804020101020408107C
:1002A0002040800000000A0B0C000000000000014C
:1002B000040506000000000000000000000000002F
:1002C000000000000000000000000000000000002E
:1002D0000000000000000000EB1311241FBECFEF50
:1002E000D0E1DEBFCDBF11E0A0E0B1E0E6E7F1E490
:1002F00000E00BBF02C007900D92A639B107D9F7F5
:1003000024E0A6E9B1E001C01D92AB3CB207E1F7E1
:1003100011E0CDE6D1E004C02197FE010E94471F05
:10032000CC36D107C9F70E94FC130C94B9200C9469
:1003300000009091B20481E0913208F043C08091B6
:100340008E048111FCCF8091B10422E020938E04B1
:1003500021E020938D042FEF20938C0421E934E0D9
:1003600030938B0420938A0410928904909388041C
:100370001092870490918704880F892B80938704BB
:1003800080918604813029F510928604809187043B
:10039000809373008091740083FDF8CF85EC809387
:1003A000740080918E048230E1F380918C048F3F41
:1003B00091F080918C04803281F080918C048033A4
:1003C00071F084E0109290041092B20410928F04A5
:1003D000089585EEE4CF80E0F5CF82E0F3CF83E0AF
:1003E000F1CF90E0FC01ED55FD4F2491FC01E25965
:1003F000FD4F3491875C9D4FFC018491882341F12E
:100400002223C1F021502C30A8F4E22FF0E0E55F68
:10041000FD4F0C94471F410241021A0217022902A4
:100420002C022F021A021A02330239023D029FB532
:100430009F779FBDE82FF0E0EE0FFF1FE75DFD4FB8
:10044000A591B4918FB7F894EC913E2B3C938FBF5C
:1004500008959FB59F7DEDCF9FB5977FEACF95B566
:100460009F7D95BDE7CF90918B009F7790938B00F8
:10047000E1CF90918B009F7DF9CF90918B00977F7A
:10048000F5CF93B79F7D93BFD5CFE82FF0E0E65926
:10049000FB4F8085861739F06087618B80916C04F3
:1004A000836080936C040895262F30E0909170044F
:1004B0009078691729F090916C049C6090936C047B
:1004C0003695322F222737952795822B80937004FB
:1004D000809371040895E0914702F09148023097AB
:1004E00029F0109290041092B20409940895CF93C9
:1004F000DF93AC01E0914502F09146023097F1F0B4
:1005000090914402809143029817C0F090E0292F07
:1005100030E02617370754F4D901AB55BE4F240FEE
:10052000351FE90128812C939F5FF1CF109244027F
:1005300060934302CB01DF91CF910994DF91CF917A
:100540000895CF93DF9390E0FC01E259FD4F249191
:10055000875C9D4FFC0184918823C9F090E0880F4F
:10056000991FFC01E75FFD4FA591B491FC01E75D88
:10057000FD4FC591D49161110DC09FB7F8948C9136
:10058000209582238C938881282328839FBFDF9125
:10059000CF910895623051F49FB7F8943C91822F27
:1005A000809583238C93E8812E2BEFCF8FB7F8941F
:1005B000EC912E2B2C938FBFEACF3FB7F89480910C
:1005C0003B0290913C02A0913D02B0913E0222B7C5
:1005D00006B600FE05C02F3F19F00196A11DB11D02
:1005E0003FBFBA2FA92F982F8827BC01CD01620FDA
:1005F000711D811D911D42E0660F771F881F991F95
:100600004A95D1F70895883008F5E82FF0E0EE0F0D
:10061000FF1FE95CFE4F718360838150873068F46F
:10062000E82FF0E0EA5EFC4F0C94471F27033403E9
:1006300042035003570362036E0380916A008C7F6C
:10064000482B40936A0089B7816089BF08958091E3
:100650006A00837F440F551F440F551F482B40935A
:100660006A0089B78260F1CF80916A008F7C74E064
:10067000440F551F7A95E1F7482B40936A0089B7DC
:100680008460E3CF80916A008F7366E0440F551F4A
:100690006A95E1F7482B40936A0089B78860D5CF07
:1006A0008AB78C7F482B4ABF89B78061CECF8AB783
:1006B000837F440F551F440F551F482B4ABF89B7EE
:1006C0008062C3CF8AB78F7C24E0440F551F2A95E0
:1006D000E1F7482B4ABF89B78064B7CF8AB78F73D9
:1006E00096E0440F551F9A95E1F7482B4ABF89B70A
:1006F0008068ABCFFF920F931F93CF93DF930E943D
:10070000DD022091A3013091A401EB01C21BD30BA8
:1007100020914D0230914E02C217D30708F461C0F8
:1007200040915702509158024130510561F0E091DB
:100730008002F09181022081309182022323309146
:100740004B0223134EC07093A4016093A301009148
:100750004F02109150024230510509F419C1433043
:10076000510509F454C14130510561F48091A20151
:10077000813009F449C0D8F1833009F486C084304F
:1007800009F4CFC08091570290915802019749F126
:10079000C017D10708F073C18091A0018F5F8093CB
:1007A000A0018B30F0F081E090E0909358028093AC
:1007B000570241E050E06AE773E080917E020E94B8
:1007C000030310924B021092A20182E590E09093F5
:1007D000500280934F0283E290E090934E02809308
:1007E0004D02DF91CF911F910F91FF900895C01797
:1007F000D10730F481E08093A201C093A101C2CF60
:1008000084E08093A201BECFC017D107E0F510921B
:10081000A2018091A0018F5F8093A0012091A1018E
:100820008C2F0C2E000C990B821B910927FD9395A0
:1008300097FF03C0919581959109499794F2109281
:1008400058021092570282E990E0909350028093F0
:100850004F0282E590E090934E0280934D021092F9
:10086000A001F0904C024F2D50E06AE773E08091B8
:100870007E020E9403038091820293E0F91229C054
:1008800080934B027FCF83E0BCCFC017D10718F510
:10089000109258021092570282E990E09093500211
:1008A00080934F0282E590E090934E0280934D0238
:1008B0001092A001F0904C024F2D50E06AE773E0D7
:1008C00080917E020E9403038091820233E0F3163E
:1008D000B9F280E0D5CF90914C02933009F482E0D8
:1008E00080934C0282E090E09093580280935702EC
:1008F00082E990E09093500280934F0282E590E06D
:1009000090934E0280934D0210925D028091A0015F
:1009100080935E0210925A0210925C0210925B0267
:10092000C9CFC017D107A8F41092580210925702ED
:1009300082E990E09093500280934F0282E590E02C
:1009400090934E0280934D021092A00110925A0291
:1009500088CF82E090E0909358028093570282E91A
:1009600090E09093500280934F0282E590E0909344
:100970004E0280934D0210925D028091A0018093FF
:100980005E0210925A0210925C0210925B0269CFD2
:1009900090915A029F5F90935A0280915B02880F58
:1009A000C017D107E0F080935B02983009F0F0CED9
:1009B000E0915D02E630A9F41092580210925702BD
:1009C00082E990E09093500280934F0282E590E09C
:1009D00090934E0280934D0210925A02D3CE8160C2
:1009E000E2CF83E090E09093580280935702909179
:1009F0005B0281E08E0F80935D02F0E0E95AFD4FCB
:100A0000908780915C02892780935C02BBCEC017DF
:100A1000D10728F5109258021092570210925A02EC
:100A200082E990E09093500280934F0282E590E03B
:100A300090934E0280934D0280915C028111ACCE66
:100A400088E0EDE5F2E0A5E6B2E001900D928A952E
:100A5000E1F781E0809359021092A00193CE80913A
:100A60005D02863009F4A8CF82E090E090935802AE
:100A70008093570210925A0210925B0283CE10921A
:100A8000A001AFCE0895DC011496ED91FC9115976D
:100A9000908111968C918095892380830895CF93BE
:100AA000DF93DC01EC91F0E0EE0FFF1FE75EFD4FFE
:100AB000C591D491988111968C91982381E009F485
:100AC00080E0DF91CF910895DC011296ED91FC91C9
:100AD000139711969C911197808161110EC090958A
:100AE000982390831496ED91FC911597908111961F
:100AF0008C918095892380830895982B9083089505
:100B00008091430290914402891B990B089585EDD1
:100B1000809374008091740084FDFCCF10928E0449
:100B200008952091E501260F3327331F2132310527
:100B3000ECF420918E04FC0190E080E0243069F018
:100B400082E00895A091E5012191AC014B535E4FE5
:100B5000A40FB52FB11D2C930196861798F38091A1
:100B6000E501680F6093E50180E0089581E0089554
:100B70000895E091440280914302E81730F4F0E0D8
:100B8000EB55FE4F808190E008958FEF9FEF089521
:100B900090914402809143022FEF3FEF981748F461
:100BA000E92FF0E0EB55FE4F208130E09F5F9093FE
:100BB0004402C9010895CF92DF92EF92FF920F9302
:100BC0001F93CF93DF937C01CB018A0120918F0487
:100BD000222389F0EB016B01C40ED51ECC15DD0577
:100BE00069F06991D701ED91FC910190F081E02DC0
:100BF000C7010995F3CF642F0E949105C801DF91C9
:100C0000CF911F910F91FF90EF90DF90CF900895BB
:100C1000CF93DF931F92CDB7DEB7698320918F0406
:100C20002223F9F02091B204203258F021E030E084
:100C3000FC013383228390E080E00F90DF91CF911D
:100C4000089580919004E82FF0E0EF56FB4F9981D2
:100C500090838F5F809390048093B20481E090E052
:100C6000ECCF61E0CE0101960E949105F7CF1F9372
:100C7000CF93DF93CCE1D2E01881698183EB94E0DC
:100C80000E940806612F83EB94E00E9408066A81A7
:100C900083EB94E0DF91CF911F910C94080690E0D4
:100CA00080E0089580E090E0892B29F08091860211
:100CB00083FD0C9400000895009731F160916D045C
:100CC00070916E048617970709F06DC041504A3045
:100CD000D8F4E42FF0E0E159F94F0C94471F79065E
:100CE00085069006A006A706AE06B506BC06C30696
:100CF000CB0680917204281739F0209372048091FA
:100D00006C04816080936C0408959091730480EF6B
:100D1000820F292B28239217B9F320937304EFCF66
:100D20003091730440E1249FC0011124832B22954C
:100D3000207F215F8223381739F380937304DFCF3C
:100D400080917404281701F320937404D8CF809104
:100D500075042817C9F220937504D1CF80917604C9
:100D6000281791F220937604CACF80917704281730
:100D700059F220937704C3CF80917804281721F289
:100D800020937804BCCF80917904281709F4BCCF54
:100D900020937904B4CF80917A04281709F4B4CF52
:100DA00020937A04ACCF30916F043F77381719063F
:100DB00009F0AACF4230A1F018F4413031F0089583
:100DC0004330D1F0443049F1089580917B042817D5
:100DD00009F49ACF20937B0480916C04826092CFB7
:100DE00090917C0480EF820F292B2823921709F41D
:100DF0008BCF20937C04F0CF30917C0440E1249F82
:100E0000C0011124832B2295207F215F8223381774
:100E100009F47ACF80937C04DFCF80917D0428177A
:100E200009F472CF20937D04D7CF0F93009721F15F
:100E300060916D0470916E048617970729F5822FD3
:100E400090E0309170043078231729F020916C04E1
:100E5000246020936C040D3189F00F3779F00F3046
:100E600081F49C013695322F222737952795809162
:100E70007004822B809370040F9108954093700446
:100E8000F0CF10927004EDCF30916F043F77381798
:100E9000190691F7822F90E0309171043078231772
:100EA00029F020916C04286020936C049695982F6B
:100EB000882797958795482B40937104DDCF815003
:100EC0008B3108F026C0E82FF0E0E759F84F0C947A
:100ED000471F84078A078E079207960798079A0785
:100EE0009E07A007A207A407A607A807AA07AC07A2
:100EF000AE07B007B207B407B807BA07BC07C20706
:100F0000C607C807CA07CC0780916200877F809315
:100F100062000895809162008F7EF9CF8091620017
:100F20008F7DF5CF809162008F7BF1CFD8980895A7
:100F3000C0980895809162008D7FE9CF1D98089533
:100F40001C980895DF980895DE980895DD98089517
:100F5000DC980895DB980895C6980895C49808957C
:100F6000C5980895C7980895809162008B7FCFCF70
:100F70001B980895A8980895809165008D7F8093AF
:100F800065000895809165008E7FF9CF9798089548
:100F900096980895AD980895809162008E7FB7CF9E
:100FA0001F93CF93DF93EC018A819B8110E0892B03
:100FB000E9F48D819E8110E0892B69F588818E7F0F
:100FC0008883DF91CF911F910895812F90E0880F42
:100FD000991FEA81FB81E80FF91F0190F081E02D54
:100FE00080818F7780830E945F071F5F8981181738
:100FF00060F3DFCF812F90E0880F991FED81FE8194
:10100000E80FF91F0190F081E02D80818F778083B8
:101010000E945F071F5F8C81181760F3CFCFFC0120
:1010200090819570953019F4CF010C94D0070895F4
:10103000FC01208120FF03C022FF0C94D0070895FB
:1010400081508B3108F026C0E82FF0E0E65DF74FC5
:101050000C94471F45084B084F0853085708590878
:101060005B085F08610863086508670869086B0822
:101070006D086F0871087308750879087B087D088A
:101080008308870889088B088D0880916200886032
:10109000809362000895809162008061F9CF809111
:1010A00062008062F5CF809162008064F1CFD89AAF
:1010B0000895C09A0895809162008260E9CF1D9AD8
:1010C00008951C9A0895DF9A0895DE9A0895DD9A8E
:1010D0000895DC9A0895DB9A0895C69A0895C49AF3
:1010E0000895C59A0895C79A089580916200846012
:1010F000CFCF1B9A0895A89A0895809165008260C9
:10110000809365000895809165008160F9CF979A7A
:101110000895969A0895AD9A08958091620081602D
:10112000B7CF90916C04882361F0906190936C0428
:1011300081E00E94200880918A00887F80938A0045
:1011400008959F7E90936C0481E00E945F07109247
:1011500088001092890080918A008460EFCFCF933D
:10116000C82F80916F028C1719F08C2F0E94910864
:10117000C0936F02CC23F9F02FB7F89480915302FB
:1011800090915402A0915502B09156022FBF482F62
:10119000392F2A2F8B2F40937002309371022093A6
:1011A00072028093730280916F028C1749F08C2F2A
:1011B000CF910C94910840E030E020E080E0EBCF4C
:1011C000CF9108950F931F93CF938C01C0E0F80146
:1011D0008181C81720F0CF911F910F9108958C2F16
:1011E00090E0880F991FD8011296ED91FC91E80FBD
:1011F000F91F0190F081E02D8081982F90689083F5
:101200008F770E942008CF5FE2CF1F93CF93DF93A9
:10121000EC01288120FD15C022FF13C0322F316060
:10122000388321FF09C02A813B81232B51F0DF91B4
:10123000CF911F910C94E2082D813E8110E0232B69
:10124000B9F4DF91CF911F910895812F90E0880F1D
:10125000991FED81FE81E80FF91F0190F081E02DCB
:101260008081982F906890838F770E9420081F5F5D
:101270008C81181750F3E5CFCF93DF93EC01888171
:10128000982F9270691789F0662369F082608883CD
:10129000888180FF0AC0CE010E940F08CE01DF9135
:1012A000CF910C9405098D7FF2CFDF91CF910895F6
:1012B0001F93CF93DF93EC012881322F357099F47F
:1012C000322F3160388321FF09C02A813B81232BD3
:1012D00051F0DF91CF911F910C94E2082D813E8156
:1012E00010E0232BB9F4DF91CF911F910895812F46
:1012F00090E0880F991FED81FE81E80FF91F0190A2
:10130000F081E02D8081982F906890838F770E94E4
:1013100020081F5F8C81181750F3E5CFCF93DF9320
:10132000EC018881982F9270691789F0662369F023
:1013300082608883888180FF0AC0CE010E941808DD
:10134000CE01DF91CF910C9458098D7FF2CFDF91C0
:10135000CF910895E5E6F0E08081806180838FE79A
:101360009EE30197F1F700C0000080818F7E8083AB
:1013700008950C94AA091F93CF93DF93EC018091F9
:101380006C0484FF0BC08FE090E00E940D1F182FAB
:1013900080E190E00E940D1F181306C0CE01DF917E
:1013A000CF911F910C940D1FFFCF0C94BB09CF93CD
:1013B000DF9320918302309184022F3F320721F086
:1013C000C901DF91CF9108958091860287FF2BC0DC
:1013D00086FF0FC089E090E00E94D509C82F81E008
:1013E00090E00E94D5099C2F909384028093830201
:1013F00015C089E090E00E94D509C82F81E090E0F7
:101400000E94D50990E4C99F90011124207C31707D
:101410008F73282B30938402209383028091830260
:1014200090918402CECF85FF0CC081E190E00E94B4
:10143000D509C82F82E190E00E94D509C05CDD0B80
:10144000D2CF81E090E00E94D50990E0CDCFCF933C
:10145000863823E0920719F138F4813823E09207A7
:10146000D9F0CF910C940D1F873823E09207D1F06B
:10147000883823E09207A9F786E893E00E940D1FC1
:10148000C82F87E893E00E940D1F90E02FEFC29FC6
:10149000800D911D1124E5CF81E893E0E2CF86E82D
:1014A00093E0DFCF87E893E0DCCF0E94AF08EDE662
:1014B000F2E081E087831086E6E7F2E088E0DF0172
:1014C0001D928A95E9F708950F931F93CF93DF93A9
:1014D000EC01162FC63883E0D80781F150F4C138EB
:1014E00083E0D807F9F0612FCE010E94151FCE01CD
:1014F0001FC0C73883E0D80741F1C83883E0D80758
:1015000091F786E893E00E940D1F082F87E893E08B
:101510000E940D1FC82FD0E08FEF089FC00DD11D76
:101520001124E1CF81E893E00E94151F81E893E048
:10153000DF91CF911F910F910C940D1F86E893E0DE
:101540000E94151F86E893E0F3CF87E893E00E949E
:10155000151F87E893E0ECCFCF93DF93D0E0C0E096
:10156000FE01E457FF4F6491CE010E94151F2196A2
:10157000CD3281E0D807A1F761E081E893E00E94D5
:10158000151FC0E0CF5F8C2F0E942008CB31D1F710
:10159000DF91CF9108950C94AC0A1F93CF93DF9302
:1015A000209136012223C1F02FEF3FEF30930B0241
:1015B00020930A0230930F0220930E0230931302FD
:1015C00020931202309317022093160230931B02CD
:1015D00020931A021092360182309105C9F08330AF
:1015E000910509F458C020E030E0232B11F00E944F
:1015F00000008091430290914402891B990B1816B8
:1016000019060CF044C083EB94E00E94C805F1CFAA
:10161000E8E0F2E0D0E0C0E0828193810196E9F455
:10162000CC0FDD1FCC0FDD1FC85FDD4F1B821A8280
:1016300083EB94E00E94C805888383EB94E00E94CA
:10164000C8058983E0915102F09152023097C9F4A4
:10165000D0935202C09351021AC021963496C530DD
:10166000D105D1F68091430290914402891B990BD8
:101670001816190664F483EB94E00E94C805F2CFB3
:10168000FC01828193810097D9F7D383C283DF91D4
:10169000CF911F91089583EB94E00E94C805182F05
:1016A00083EB94E00E94C805D12F90E0C92FC80FAA
:1016B000D11DD0931D02C0931C0283EB94E00E94C5
:1016C000C805682F80931E02CE01D7FF21C09F77E7
:1016D00090931D0280931C028830910561F084383C
:1016E00023E0920741F08C3A23E0920721F0843DF9
:1016F00023E0920741F481E8683039F4DF91CF911B
:101700001F910C94AC0A0E94640A80931E02BFCF02
:101710000E94270AFACF1F93CF93DF93EC01162F75
:10172000089779F4662319F10E94AC0A80E090E0F2
:10173000892BB9F0612FCE01DF91CF911F910C94CD
:10174000000080E090E0892BA9F781E0C11590E1CD
:10175000D90708F080E0111105C0DF91CF911F91EA
:10176000089581E027972297C0F780E0F6CF80E0C8
:1017700090E0892BF9F681E0F0CF0F931F93CF9380
:10178000DF93EC01162F80916C0484FF25C0CF30CD
:10179000D10561F48FE090E00E94151F8FE090E08A
:1017A000DF91CF911F910F910C940D1F8FE090E06E
:1017B0000E940D1F082F80E190E00E940D1F08136A
:1017C0000AC0C730D10531F0C830D10529F418302E
:1017D00049F0FFCFFFCFFFCF612FCE010E94151F31
:1017E000CE01DECF0E94AC0A88E0DF91CF911F913D
:1017F0000F9108958331910588F48131910530F47A
:101800008130910519F08930910531F42FEF3FEFC8
:1018100030938402209383020C94BD0B8D3191058B
:10182000D9F7677F6093860220916D022F73362F60
:10183000307C232B20936D02E9CFBF92CF92DF92B1
:10184000EF92FF920F931F93CF93DF938B01B42EF0
:10185000690182FF23C083FF17C061E0C8010E94B5
:101860008B0B8823D9F16B2DC8010E94FA0B8B11C9
:1018700035C0F601DF91CF911F910F91FF90EF904E
:10188000DF90CF90BF90099460E0C8010E948B0B5D
:10189000882321F1C8010E94D509E9CF842F8770E0
:1018A000C1E0D0E07E0101C0EE0C8A95EAF7D42FAA
:1018B000D870CB010E94D509C82FB4FE1CC061E0CE
:1018C000C8010E948B0B882349F0DD2389F0CE29C3
:1018D0006C2FC8010E94FA0B8C1759F2DF91CF913F
:1018E0001F910F91FF90EF90DF90CF90BF900895E0
:1018F000E094CE21EDCF60E0C8010E948B0B8823DD
:1019000069F3CE21DD2319F0C111B3CFE7CFCC238A
:1019100009F4AFCFE3CFAF92BF92DF92EF92FF9285
:101920000F931F93CF93DF937C01162FC42FD22EDA
:10193000D42FD07E80916D0287FF2CC0D03EC1F5A0
:10194000A0906E02AA20A1F1B12CC5010E94D50978
:10195000D82FC50101960E94D509982F8D2FE81622
:10196000F90631F56C2F70E0762F662766277370C5
:101970006D296F5F7F4F22E536E0402F8C2FDF917E
:10198000CF911F910F91FF90EF90DF90BF90AF909C
:101990000C941D0C80FD33C0D03609F464C090F463
:1019A000D03209F449C0D03409F45DC0DD2381F19F
:1019B000DF91CF911F910F91FF90EF90DF90BF903B
:1019C000AF900895D03A09F484C090F42C2F2F7171
:1019D00041E0D03869F7612FC701DF91CF911F91A6
:1019E0000F91FF90EF90DF90BF90AF900C945C064A
:1019F000D03C09F475C0D03E09F4B4CFD9CF0E94D1
:101A0000D7098E159F0541F2E114F10429F2D0CFD8
:101A10008C2F8E7069F680E090E0892B49F28C2F34
:101A20008170DF91CF911F910F91FF90EF90DF9028
:101A3000BF90AF900C940000CF71CF3109F0B8CFB8
:101A40004D2D4F7761F0413061F02D2D221F22275F
:101A5000221F0DE1612FC7010E941507A9CF41E0A8
:101A6000F4CF40E0F2CF2C2F30E08C2F8F718130FB
:101A700029F030F0803121F0813109F540E001C0DA
:101A800041E095E0359527959A95E1F721700DE1B4
:101A9000612FC7010E94150780E090E0892B09F4AF
:101AA00087CF4C2F612FC701DF91CF911F910F91ED
:101AB000FF90EF90DF90BF90AF900C940000C901B1
:101AC000880F991F8E71C4FB442740F9482B425060
:101AD000D8CF2C2F2F7043E0C4FF7DCF42E07BCFC7
:101AE000CF71CE3131F0CF3109F062CF2D2D45E0ED
:101AF00072CF2D2D44E06FCF4F925F926F927F9205
:101B00008F929F92AF92BF92CF92DF92EF92FF920D
:101B10000F931F93CF93DF93C0914902D0914A0254
:101B200080913202811116C02FB7F8948091530230
:101B300090915402A0915502B09156022FBF80930C
:101B40002E0290932F02A0933002B093310281E0D5
:101B50008093320280912602811111C00E94DD0221
:101B600064517109810991096093220270932302E3
:101B7000809324029093250281E0809326020E94A4
:101B8000DD022B013C018FB7F894C0905302D09036
:101B90005402E0905502F09056028FBF80912E02C1
:101BA000BC2CB81A80912202909123029201281B2A
:101BB000390BC90120912102211169C0FE0130E0D9
:101BC00020E045815681C417D50709F056C045E08D
:101BD000429F8001439F100D11240E5F1F4F0C0F79
:101BE0001D1F1093200200931F020115110509F417
:101BF00058C0F801148213828431910508F496C10B
:101C0000853F914008F0B8C18D8D9E8D0E944F0593
:101C1000F801808381E08093210240922202509259
:101C200023026092240270922502F6E0FB1508F46C
:101C300081C18D8D9E8D0E944F05A0901F02B09096
:101C4000200290912102E92FE695E695E695292F4D
:101C5000277041E050E060E070E004C0440F551F81
:101C6000661F771F2A95D2F7EA0DFB2DF11D811112
:101C700029C040958081482327C02F5F3F4F35966C
:101C80002530310509F09DCF10E000E0AACF26E015
:101C90002B1508F44FC18431910518F0853F914010
:101CA00040F2DF91CF911F910F91FF90EF90DF9065
:101CB000CF90BF90AF909F908F907F906F905F90EC
:101CC0004F9008958081482B408381E0890F809355
:101CD00021024092220250922302609224027092CA
:101CE0002502982F9770E9F68031E9F4F50180819B
:101CF000863780F4EB8DFC8D309721F4BC8EAB8E53
:101D000007C0FC01838194810097D9F7B482A38234
:101D100010922102C0922E02D0922F02E092300245
:101D2000F0923102BECF8831A9F7F50111811F77FA
:101D30008DEF782E710EF7E2F71580F088818130F3
:101D4000A1F4812E912C1B3261F118F5133049F169
:101D5000143029F1111152C0888124C085ED810F02
:101D6000883250F48881823061F3E0911F02F09153
:101D70002002D483C383CCCF8DEA810F883220F434
:101D80008881833091F7DDCF8EEF810F8230C8F6E6
:101D9000ECCF133531F0143511F01C3279F58AE0AF
:101DA00001C08DE0F501028190819B3769F19F3779
:101DB00009F472C09737C9F60813D7CF61E08D8D4B
:101DC0009E8D0E9464058D8D9E8D0E9443058FE639
:101DD00097E10197F1F700C00000AD8DBE8D14961C
:101DE000ED91FC911597808111969C91892B8083B0
:101DF00060E08D8D9E8D0E946405B7CFC4018F5722
:101E00009C4F0E94270ACECF202F2870302F37708A
:101E100004FF35C01D3278F51B3208F0A6CF91E0E3
:101E2000971508F0A2CF41E050E060E070E004C0F8
:101E3000440F551F661F771F3A95D2F7182F142BA2
:101E4000211103C0142F10951823612FC4018F573F
:101E50009C4F0E94640A181388CF61E08D8D9E8D7F
:101E60000E9464058D8D9E8D0E944305EFE6F7E18B
:101E70003197F1F7B0CF13551230A8F676CF90E036
:101E800002C0959587953A95E2F7817099272817B2
:101E9000190609F06ACF92CF1B32D9F190F51330B1
:101EA000C1F1143009F461CF602FC4018F579C4FEA
:101EB0000E94640A08131FC061E08D8D9E8D0E94F0
:101EC00064058D8D9E8D0E9443058FE697E10197F5
:101ED000F1F700C00000AD8DBE8D1496ED91FC9120
:101EE0001597808111969C91892B808360E08D8D60
:101EF0009E8D0E946405111138CF043078F4088358
:101F000034CF133531F0143509F42FCF1C3261F67C
:101F10002CCF083081F70E94AC0A9FCF61E081E8A6
:101F200093E00E94640A81E088831FCFF6E0FB15EE
:101F300008F0B7CE99E09B1508F0B3CEC0922E0200
:101F4000D0922F02E0923002F092310200911F02F3
:101F5000109120028D8D9E8D0E944F05F801808387
:101F600081E08093210240922202509223026092EB
:101F700024027092250295CE26E02B15D8F291CE40
:101F80009F92AF92BF92CF92DF92EF92FF920F9308
:101F90001F93CF93DF937C016B01942E81E0F701B7
:101FA000481328C0A280B380E7012196A114B10490
:101FB00031F562E070E081E090E00E94641F8C01E6
:101FC000009731F0FC01D182C08288818F5F8883C5
:101FD000F1E09F1242C0F70113830283DF91CF919A
:101FE0001F910F91FF90EF90DF90CF90BF90AF9037
:101FF0009F900895A580B680E7012496D7CF888169
:102000008F5F8883C82FD0E062E070E0CE010E942D
:10201000641F8C0120E0AE0141505109822F90E0F5
:102020008417950764F0C150D048CC0FDD1FC00F56
:10203000D11FD982C882C5010E941C20C9CF880F38
:10204000991FF501E80FF91F60817181800F911FC1
:10205000FC01718360832F5FE1CFF7011683058355
:10206000BDCF1F920F920FB60F9211242F933F9363
:102070008F939F93AF93BF9380915302909154029B
:10208000A0915502B091560230913A0223E0230FFD
:102090002D3768F126E8230F0296A11DB11D20936C
:1020A0003A028093530290935402A0935502B09346
:1020B000560280913B0290913C02A0913D02B0916A
:1020C0003E020196A11DB11D80933B0290933C02FC
:1020D000A0933D02B0933E02BF91AF919F918F912B
:1020E0003F912F910F900FBE0F901F901895019662
:1020F000A11DB11DD4CF1F920F920FB60F921124C4
:102100000BB60F922F933F934F935F936F937F93F1
:102110008F939F93AF93BF93EF93FF93E09145010C
:10212000F09146010995FF91EF91BF91AF919F9179
:102130008F917F916F915F914F913F912F910F9070
:102140000BBE0F900FBE0F901F9018951F920F920D
:102150000FB60F9211240BB60F922F933F934F930C
:102160005F936F937F938F939F93AF93BF93EF93FF
:10217000FF93E0914301F09144010995FF91EF91A4
:10218000BF91AF919F918F917F916F915F914F918F
:102190003F912F910F900BBE0F900FBE0F901F908D
:1021A00018951F920F920FB60F9211240BB60F9233
:1021B0002F933F934F935F936F937F938F939F934F
:1021C000AF93BF93EF93FF93E0914101F0914201F0
:1021D0000995FF91EF91BF91AF919F918F917F9161
:1021E0006F915F914F913F912F910F900BBE0F9088
:1021F0000FBE0F901F9018951F920F920FB60F925F
:1022000011240BB60F922F933F934F935F936F93CD
:102210007F938F939F93AF93BF93EF93FF93E0913F
:102220003F01F09140010995FF91EF91BF91AF916E
:102230009F918F917F916F915F914F913F912F91DE
:102240000F900BBE0F900FBE0F901F9018951F920E
:102250000F920FB60F9211240BB60F922F933F934C
:102260004F935F936F937F938F939F93AF93BF939E
:10227000EF93FF93E0913D01F0913E010995FF91AD
:10228000EF91BF91AF919F918F917F916F915F91EE
:102290004F913F912F910F900BBE0F900FBE0F905B
:1022A0001F9018951F920F920FB60F9211240BB624
:1022B0000F922F933F934F935F936F937F938F93DF
:1022C0009F93AF93BF93EF93FF93E0913B01F09106
:1022D0003C010995FF91EF91BF91AF919F918F9133
:1022E0007F916F915F914F913F912F910F900BBE16
:1022F0000F900FBE0F901F9018951F920F920FB660
:102300000F9211240BB60F922F933F934F935F932D
:102310006F937F938F939F93AF93BF93EF93FF93AD
:10232000E0913901F0913A010995FF91EF91BF9148
:10233000AF919F918F917F916F915F914F913F915D
:102340002F910F900BBE0F900FBE0F901F901895FE
:102350001F920F920FB60F9211240BB60F922F936C
:102360003F934F935F936F937F938F939F93AF931D
:10237000BF93EF93FF93E0913701F09138010995F6
:10238000FF91EF91BF91AF919F918F917F916F914D
:102390005F914F913F912F910F900BBE0F900FBE09
:1023A0000F901F9018951F920F920FB60F92112445
:1023B0000BB60F922F933F934F935F936F937F933F
:1023C0008F939F93AF93BF93EF93FF93809171008F
:1023D000887F803609F44DC008F040C0883209F487
:1023E000A9C028F5803109F49DC0C8F4882309F4F8
:1023F00007C1883009F496C0FF91EF91BF91AF916A
:102400009F918F917F916F915F914F913F912F910C
:102410000F900BBE0F900FBE0F901F901895883134
:1024200009F488C0803241F780938C0414C0803452
:1024300009F4A5C040F48033B9F38833E9F68093FA
:102440008C0485ECBCC0803509F489C0883509F45A
:102450009EC0883489F60E948705CECF883909F45A
:1024600094C038F5883729F050F4883611F0803759
:1024700019F683E080938E041092070257C08838C3
:1024800009F483C0803919F0803809F0B5CF809104
:102490000702803208F079C0E091070281E08E0FD8
:1024A0008093070280917300F0E0E951FE4F808332
:1024B0003DC0803B39F0E0F4803A09F485C0883AA9
:1024C00009F09ACF84E080938E041092E601109276
:1024D000E501E0914102F091420209958091E50108
:1024E00081110FC081E08093E5011092C50109C000
:1024F000803C09F4A6CF883C09F4A3CF883B09F0BF
:102500007BCFE091E60181E08E0F8093E601F0E061
:10251000EB53FE4F8081809373009091E601809190
:10252000E50131C0809187048093730085EC80932E
:10253000740062CF90918904809188049817B8F54F
:1025400080918A0490918B04E091890421E02E0F00
:1025500020938904E80FF92FF11D8081E5CF2091A8
:102560008A0430918B04E091890481E08E0F80937E
:10257000890480917300E20FF32FF11D8083909105
:10258000890480918804981788F285E8D0CF20913B
:102590008A0430918B04E091890481E08E0F80934E
:1025A000890480917300E20FF32FF11D80838091E5
:1025B0008D04811150CF81E08093860484EA80935A
:1025C000740010928E0418CF85EC809374001092E2
:1025D0008E0480910702803230F4E0910702F0E02F
:1025E000E951FE4F10826091070270E0E0913F02D6
:1025F000F091400287EE91E0099510920702FCCE1F
:1026000010928C0428CF1F920F920FB60F921124B4
:102610000BB60F92EF92FF920F931F932F933F935E
:102620004F935F936F937F938F939F93AF93BF93DA
:10263000CF93DF93EF93FF930FB6F894A89581B5EE
:10264000886181BD11BC0FBE789485B78F7D85BF31
:1026500010929F01C1E0D1E0D0938F04C093B104E8
:10266000109290041092B2040E949901811105C049
:1026700080919F018F5F80939F01CF5FCF3761F77C
:1026800080919D0190919E01009731F00E941C2045
:1026900010929E0110929D01D0919F01DD2371F156
:1026A00061E070E08D2F90E00E94641F7C019093A8
:1026B0009E0180939D0110E0C1E001E000938F0432
:1026C000C093B104109290041092B2040E94990138
:1026D000811105C0F701E10FF11DC0831F5FCF5FBE
:1026E000CF3761F7D23050F080918A00887F809395
:1026F0008A0080917D008B7F80937D0010928800FE
:102700001092890085B7806285BFFF91EF91DF91BC
:10271000CF91BF91AF919F918F917F916F915F9179
:102720004F913F912F911F910F91FF90EF900F903C
:102730000BBE0F900FBE0F901F9018951F920F9217
:102740000FB60F9211240BB60F922F933F934F9316
:102750005F936F937F938F939F93AF93BF93CF9329
:10276000DF93EF93FF937894CDE4D1E0E991F99171
:10277000808187FF08C08F7720919C0191819217FB
:1027800020F10E94200881E0C338D80779F786E954
:1027900084BD80919C018F5F8032D1F080939C0139
:1027A000FF91EF91DF91CF91BF91AF919F918F9169
:1027B0007F916F915F914F913F912F910F900BBE41
:1027C0000F900FBE0F901F9018950E945F07DBCFF0
:1027D00010929C01E5CFE3EBF4E01382128288EEC5
:1027E00093E0A0E0B0E084839583A683B78387E875
:1027F00091E0918380830895CF93DF9300D01F925F
:10280000CDB7DEB7789483B78C6483BF87B7816018
:1028100087BF22E02EBD8EB581608EBD8FB58160F1
:102820008FBD85B5846085BD85B5806485BD80918B
:102830008A00836080938A0080918B0081608093FE
:102840008B0087E886B91AB80FB6F894A89581B5B9
:10285000886181BD11BC0FBE1ABA17BA14BA11BA79
:1028600012B8109261001092640061E081E00E9451
:10287000A10281E00E94F1011092440210924302F1
:10288000109290041092B20410928E0481E0809312
:102890008D041092860483E10E94F10182E10E947E
:1028A000F101809171008C7F8093710088E48093A6
:1028B000700085E4809374008BE692E0909342026E
:1028C0008093410287E792E09093400280933F0219
:1028D00032E0309372008CE0809370008DEC9AE0CF
:1028E000909346028093450287E396E090934802D6
:1028F000809347028091610088608093610080919D
:1029000061008061809361008091610080628093AA
:10291000610080916100806480936100D09AB89AD0
:1029200080916100826080936100159A149AD79A11
:10293000D69AD59AD49AD39ABE9ABC9ABD9ABF9A7F
:1029400080916100846080936100139AA09A8091C5
:102950006400826080936400809164008160809351
:1029600064008F9A8E9AA59A80916100816080930D
:102970006100809164008061809364008DE190E04B
:102980000E940D1F80936A048CE190E00E940D1F4D
:1029900080936B048DE190E00E940D1F85FFDDC2E6
:1029A00081E190E00E940D1F8F73482F50E0942F1B
:1029B00088279B838A8382E190E00E940D1FAA8171
:1029C000BB81A82BBB83AA832A813B8130936E04F1
:1029D00020936D0483E190E00E940D1F80936F04AB
:1029E00080E88093700480937104E9EBCE2EE1E0DF
:1029F000DE2EFDE4EF2EF1E0FF2EA3E8AA2EA1E0EB
:102A0000BA2EB7E09B2EF60105911491C8010E94E1
:102A10000D1F8983C80101960E940D1F8A830E5FD6
:102A20001F4FC8010E940D1F803228F06FE1C801BE
:102A30000E94261F8FE1D7010D911D917D01F801A4
:102A40008183FA81F03809F499C2F13809F49FC200
:102A5000F11113C03981399D9001112429573D4F3F
:102A60003B832A8341E0B801C9010E94C00F40E0C6
:102A7000B8018A819B810E94C00F82E0C80ED11CE0
:102A8000AE14BF0409F0BFCF85E190E00E940D1F96
:102A900080FF05C090918E02946090938E0281FF1A
:102AA00005C09091950294609093950282FF05C0B5
:102AB00090919C02946090939C0283FF05C090913A
:102AC000A30294609093A30284FF05C09091AA0290
:102AD00094609093AA0285FF05C09091B102946022
:102AE0009093B10286FF05C09091B80294609093D4
:102AF000B80287FF05C08091BF0284608093BF0247
:102B000086E190E00E940D1F80FF05C09091870232
:102B100094609093870282FF05C09091C6029460F2
:102B20009093C60283FF05C09091CD02946090936C
:102B3000CD0284FF05C09091D40294609093D4029A
:102B400085FF05C09091DB0294609093DB0286FFC5
:102B500005C09091E20294609093E20287FF05C065
:102B60008091E90284608093E9028FE190E00E9405
:102B7000801F9B838A8385E1AA81BB8111968C93F8
:102B800086E090E00E94801FDC01E4E8F2E0E4913E
:102B90001196EC931197EFE4F2E024912C9330E03E
:102BA000220F331FF901E75FFD4F85919491139632
:102BB0009C938E931297F901E75DFD4F8591949157
:102BC00015969C938E931497EA81FB81B68FA58FFF
:102BD000F0938504E093840481E893E00E94270A3F
:102BE000AA81BB818C93843048F061E081E893E056
:102BF0000E94640A81E0EA81FB8180832A813B8113
:102C000030934A0220934902D90111968C918F3F4B
:102C1000A1F060E00E94A102EA81FB8181819CEF2A
:102C2000980F943020F08251843008F08FEF42E00A
:102C300050E06CE77DE00E94030360E0AA81BB8165
:102C40005D968D919C910E9464052A813B81F901DA
:102C50003683258333872287308B2787358B248BD8
:102C6000328F218F148E138E82E080937E0284E156
:102C700080937F02EDE4F2E0E491F0E0EE0FFF1FBD
:102C8000E75EFD4F8591949190938102809380023D
:102C9000E2E8F2E0E491E093820260E084E10E94E5
:102CA000A102E7E5F2E086E1DF011D928A95E9F7EE
:102CB00082E990E09093500280934F0282E590E089
:102CC00090934E0280934D0210926D0210926E020C
:102CD0008FEF9FEF9093840280938302109285027E
:102CE00083E080934C028091820280934B0243E008
:102CF00050E06AE773E080917E020E9403038DE159
:102D000090E00E94D509682F6F738DE190E00E94DA
:102D1000FA0B8093860262E187E090E00E94FA0B52
:102D20006DE088E090E00E94FA0B80E00E94550A76
:102D300014BC15BC85B5887F85BD87B7806487BF07
:102D400085B5836085BD109288001092890010922D
:102D50008A0010928B0080918A00846080938A00A0
:102D600080917D00846080937D0085B7837E85BFE0
:102D700085B7806285BFB1E0B98320E0C22E20E034
:102D8000D22E30E0432E30E0532E40E0642E40E05F
:102D9000742E50E0E52E50E0F52E60E0A62E60E0A7
:102DA000B62EE0915102F0915202309709F0F5C031
:102DB000E981EB3009F0B9C2FBE0F98380916C0442
:102DC00082FF20C087E892E09B838A8315E46091AC
:102DD000700480916A0480FF08C76095661F6627AB
:102DE000661F8A819B810E948E091150AA81BB8136
:102DF0001796BB83AA831111EACF80916C048B7F55
:102E000080936C0480916C0483FF21C0E7E8F2E0BA
:102E1000FB83EA8315E46091710480916F0487FF5E
:102E2000E6C66095661F6627661F8A819B810E94A1
:102E30003C0911502A813B81295F3F4F3B832A8304
:102E40001111E9CF80916C04877F80936C0480918D
:102E50006C0480FF3EC00AE614E028EF822E912C1D
:102E600037E0332E9110DEC68091720484FFC1C614
:102E700087E892E00E9458098091720480FFBEC6E4
:102E80008EE892E00E9458098091720481FFBBC6CF
:102E900085E992E00E9458098091720482FFB8C6C9
:102EA0008CE992E00E9458098091720483FFB5C6B4
:102EB00083EA92E00E94580993940F5F1F4FF8E055
:102EC0008F0E29E09212CECF80916C048E7F80937A
:102ED0006C0480916C0481FF3EC00AE614E088EF28
:102EE000882E912C97E0392E911026C780917B0473
:102EF00084FF09C787E892E00E94050980917B045E
:102F000080FF06C78EE892E00E94050980917B044D
:102F100081FF03C785E992E00E94050980917B0447
:102F200082FF00C78CE992E00E94050980917B0432
:102F300083FFFDC683EA92E00E94050993940F5F28
:102F40001F4FF8E08F0E29E09212CECF80916C04D3
:102F5000877F80936C04889524CF81E090E00E9465
:102F60000D1F181634F063E081E090E00E94151FF9
:102F700083E0E82FF0E0FB83EA8326CD4981499D79
:102F8000C001112440E0B80189579D4F74CD59818B
:102F9000599DC001112441E0F6CF20E030E0232B01
:102FA00021F0618180810E940000E0915102F09146
:102FB00052028081813409F405C108F052C08A327E
:102FC00009F463C168F5843209F45AC088F4813287
:102FD00009F40DC1833209F413C1811114C0A0E0BA
:102FE000B0E0AB2B09F45CC081810E94000058C0A6
:102FF000863209F419C108F42BC1883209F435C1AD
:10300000893209F43BC182819381AFEFBFEFB38373
:10301000A2839093520280935102BBE0B983CECE3B
:103020008E3209F447C158F48C3209F43CC108F4DB
:1030300033C1E114F104A1F1618185E01CC1803349
:1030400009F446C108F43DC1813309F44AC1803412
:10305000D1F6C114D10421F1618180E00E94000009
:103060001FC0823609F471C0A0F5813509F4F0C0A3
:1030700080F4833409F4B4C008F4ABC0803519F689
:10308000818160E087FF02C061E080580E945402A5
:1030900007C08E3509F42CC1A0F4823509F0B3CFF6
:1030A000E0915102F0915202828193812FEF3FEF24
:1030B0003383228390935202809351023BE0398301
:1030C0007DCE8036E9F1813609F09DCF618181E0C6
:1030D00039C0873609F445C058F48436E1F1C0F1AF
:1030E0008536E1F1863609F08ECF618186E02AC00F
:1030F0008C3609F411C130F4883609F084CF61812F
:1031000088E020C08D3681F18E3609F07CCFA28117
:10311000B381109709F450CE8C918F3609F6411483
:10312000510409F4BDCF2181622F661F6627661FF7
:1031300011968C91A0E88A9FC0011124822B3FC078
:10314000618180E00E944502ABCF618182E0FACFCD
:10315000618183E0F7CF618184E0F4CF618185E014
:10316000F1CF618187E0EECF6181862F8F774114A7
:10317000510409F495CF811120C01B821A8267FD8A
:103180000FC04A815B814F5F5F4F5B834A8340384A
:10319000510509F485CF60E0CA010E940000F1CF1B
:1031A0008A819B8101969B838A838038910509F4EB
:1031B00077CF61E00E940000F3CF607890E00E943A
:1031C00000006ECFC114D10409F46ACF618181E09F
:1031D00045CFC114D10409F463CF618182E03ECFB1
:1031E000C114D10409F45CCF618183E037CF20E0C2
:1031F00030E0232B09F454CF81810E94000050CF8E
:1032000040E050E0452B09F44BCF818187FD06C09B
:10321000082E000C990B0E94000042CF819590E08F
:10322000919581959109F7CF80E090E0892B09F481
:1032300037CF818187FD06C0082E000C990B0E94B4
:1032400000002ECF819590E0919581959109F7CF5F
:103250006114710409F424CF818160E087FF02C00A
:1032600061E080580E9400001BCFE114F10409F4D2
:1032700017CF618180E00E94000012CFE114F104B9
:1032800009F40ECF618181E0F6CFE114F10409F475
:1032900007CF618182E0EFCFE114F10409F400CFA0
:1032A000618183E0E8CFE114F10409F4F9CE618192
:1032B00084E0E1CFE114F10409F4F2CE618186E00B
:1032C000DACFE114F10409F4EBCE618187E0D3CFCA
:1032D000A114B10409F4E4CE618181E00E940000F0
:1032E000DFCEA114B10409F4DBCE618182E0F6CF18
:1032F000A281B381109709F45FCD8C918F3509F0CD
:10330000CFCE20E030E0232B09F4CACE11969C9159
:1033100081810E940000C4CE40E050E0452B09F4BA
:10332000BFCE81810E940000BBCE409184045091A9
:1033300085045B834A83DA015B96ED91FC913097BB
:1033400009F4B2C120E030E0232B21F061818081BB
:103350000E940000AA81BB815B96ED91FC91808167
:10336000813409F4F4C008F051C08A3209F44CC128
:1033700060F5843209F459C088F4813209F4FCC044
:10338000833209F402C1811114C0A0E0B0E0AB2B7C
:1033900009F45BC081810E94000057C0863209F4A5
:1033A00005C108F414C1883209F41EC1893209F438
:1033B00024C183819481AA81BB81B483A3835C9659
:1033C0009C938E935B97BAE029CE8E3209F431C17B
:1033D00058F48C3209F426C108F41DC1E114F1043B
:1033E000A1F1618185E006C1803309F430C108F4A0
:1033F00027C1813309F434C18034D9F6C114D10412
:1034000021F1618180E00E9400001FC0823609F432
:1034100068C060F5813509F4DAC080F4833409F4BA
:10342000A4C008F49BC0803521F6818160E087FF4D
:1034300002C061E080580E94540207C08E3509F432
:1034400016C160F4823509F0B4CFAA81BB815B96C6
:10345000ED91FC915C9783819481AFCF8036E1F14F
:10346000813609F0A6CF618181E038C0873609F442
:1034700044C058F48436D9F1B8F18536D9F186368E
:1034800009F097CF618186E029C08C3609F403C129
:1034900030F4883609F08DCF618188E01FC08D3609
:1034A00079F18E3609F085CFA381B481109709F4A4
:1034B00097C38C918F3649F64114510431F2218122
:1034C000622F661F6627661F11968C91B0E88B9F4E
:1034D000C0011124822B38C0618180E00E94450226
:1034E000B4CF618182E0FACF618183E0F7CF61815F
:1034F00084E0F4CF618185E0F1CF618187E0EECF98
:103500004114510409F4A1CF6181862F8F77D1F442
:1035100010E000E067FD0BC00F5F1F4F0038110582
:1035200009F493CF60E0C8010E940000F5CF0F5F5F
:103530001F4F0038110509F488CF61E0C8010E94CF
:103540000000F5CF607890E00E9400007ECFC114AB
:10355000D10409F47ACF618181E055CFC114D1043F
:1035600009F473CF618182E04ECFC114D10409F414
:103570006CCF618183E047CF20E030E0232B09F45A
:1035800064CF81810E94000060CF40E050E0452B75
:1035900009F45BCF818187FD03C00E94000055CFF5
:1035A000819590E0919581959109F7CF80E090E029
:1035B000892B09F44ACF818187FD03C00E94000056
:1035C00044CF819590E0919581959109F7CF611451
:1035D000710409F43ACF818160E087FF02C061E0A5
:1035E00080580E94000031CFE114F10409F42DCF7E
:1035F000618180E00E94000028CFE114F10409F409
:1036000024CF618181E0F6CFE114F10409F41DCFEC
:10361000618182E0EFCFE114F10409F416CF6181FA
:1036200083E0E8CFE114F10409F40FCF618184E075
:10363000E1CFE114F10409F408CF618186E0DACF2B
:10364000E114F10409F401CF618187E0D3CFA11423
:10365000B10409F4FACE618181E00E940000F5CE48
:10366000A114B10409F4F1CE618182E0F6CFA38107
:10367000B481109709F4B6C28C918F3509F0E5CE6C
:1036800020E030E0232B09F4E0CE11969C9181815B
:103690000E940000DACE40E050E0452B09F4D5CE80
:1036A00081810E940000D1CEE981E13009F086CB12
:1036B00080916F028823F1F02FB7F8948091530224
:1036C00090915402A0915502B09156022FBF4091A3
:1036D0007002509171026091720270917302841BAA
:1036E000950BA60BB70B4597A105B10518F080E027
:1036F0000E94550A80915902882309F45FCBF894FF
:1037000088E0E5E6F2E0AFEBB4E001900D928A9537
:10371000E1F71092590278948091BF04E82FF0E00D
:10372000EF53FB4F863018F411928F5FFBCF80E090
:1037300090E0892B21F08FEB94E00E9400008091B3
:10374000C104811117C09091C204911113C080E08F
:1037500090E0892B19F080E00E94000080916F02B8
:10376000882321F081E00E94AF0828CB81E00E94ED
:10377000550A24CB90916F02992309F495C0805784
:10378000803108F08EC081E00E94AF08F091BF0444
:10379000FA8380917602F8130AC04F2F50E068E751
:1037A00072E081EC94E00E94A520892B61F01092D8
:1037B000750288E0EFEBF4E0A6E7B2E001900D922D
:1037C0008A95E1F7FBCA809175028F5F809375023D
:1037D0002A81233009F04CC09091C104892F877051
:1037E0001091C204853029F4109374020E94AA0932
:1037F000E5CA843059F1282F30E0843010F540912B
:1038000074024423F1F0A42FA150BB0BAA0FBB1FDD
:10381000AA0FBB1FA20FB31F1196BB83AA8393FFEE
:103820001AC061E08A819B810E948B0B882309F476
:10383000C5CA612F8A819B810E94FA0B1813BECAE8
:10384000D5CFF9013196FB83EA83E9CF2DE130E052
:103850003B832A83E4CF60E08A819B810E948B0BAB
:10386000882309F4ABCA8A819B810E94D509E6CFDF
:103870003A81343009F0A2CA8091C104682F70E007
:10388000762F6627662773709091C204692B6F5F4D
:103890007F4F29EB39E04091C3048C700E941D0CCE
:1038A0008DCA80E00E94550AE091C104EF3F61F4A7
:1038B0008091C204811182CA80E090E0892B09F4D2
:1038C0007DCA0E9400007ACAE7FD0CC00091C404C2
:1038D0002091C3044091C20460E08E2F90E00E94CA
:1038E0008B0C6CCAE03C08F06BC190916D0297FFA5
:1038F00065CA8091C204282F30E0A90140955095F7
:10390000440F551F440F551F407C5170EF734E2BD1
:103910005B834A8335952795522F5370352E20911E
:10392000BF04253069F58C788C3051F50E94D70999
:10393000AA81BB818A179B0721F0AF3FB14009F0F4
:103940003DCAF091C2042F2F30E0522F4427442764
:1039500053708091C304480F511D4F5F5F4F5B83CD
:103960004A831091C40461E0CA010E948B0B612F4D
:10397000882309F423CA8A819B810E94FA0B1ECAFC
:103980008A809B8051E0851A9108880C991C880CCC
:10399000991C832884010F5F1F4F80918502882323
:1039A000F9F096FF41C0C80160E071E00E94331F4A
:1039B000682F81E090E00E94FA0BC80117FF02C057
:1039C00081509F4F692F89E090E00E94FA0B80E0C0
:1039D00090E0892B19F0C8010E9400001092850226
:1039E00080916D0280FD3CC08091BF04843009F05D
:1039F00052C08091C2048978813009F0DFC960919A
:103A0000C30480E090E0892B19F0C8010E940000F7
:103A100080E090E0892B09F4D1C94091C304632D63
:103A2000C8010E940000CAC96A817B816F73772731
:103A300081E090E00E94FA0B6A817B81E6E0759557
:103A40006795EA95E1F789E090E00E94FA0B80E043
:103A500090E0892B19F28A819B810E940000BECFE1
:103A600086FF0CC00E94D7098017910709F4BCCFCC
:103A70000D3F87E018070CF0B7CFA0C90E94D70907
:103A8000AA81BB818A179B0709F4AECFAF3FB14033
:103A900009F4AACF93C9833079F54091C204F42F79
:103AA000F1708F2E43FB992490F880E090E0892BF1
:103AB00039F04770292D6A817B81C8010E9400007E
:103AC00080916D0286FF0BC080E090E0892B09F4A5
:103AD00075C9492D682DC8010E9400006FC980E09A
:103AE00090E0892B09F46AC9292D482D632D8A811C
:103AF0009B810E94000062C9863009F05FC98091F5
:103B0000C204982F9978913021F08F78803809F08D
:103B100055C980916D0286FF2BC00E94D70980177E
:103B2000910711F58091C30490E0382F22272227B6
:103B300033704091C404A42FA20FB32FB11D11966E
:103B4000BB83AA831091C504959587959595879514
:103B50008370992782309105B1F0039709F02EC93F
:103B600061E08A819B8101CF0D3F1740DCF626C9B9
:103B70000E94D709EA81FB818E179F0799F2EF3FD8
:103B8000F14081F21BC914FF19C961E08A819B8150
:103B90000E948B0B882309F411C98A819B810E94A2
:103BA000D509912F977061E070E001C0660F9A957A
:103BB000EAF713FF02C0682BDECE60956823DBCEE8
:103BC000E83E08F0FBC8E05CFF0B8091C204009166
:103BD000C5042091C4044091C30461E09E2F7FCEB0
:103BE0003AE06DCA4AE04983E9C86078FAC860786B
:103BF0001CC987E892E00E9418083EC98EE892E04E
:103C00000E94180841C985E992E00E94180844C939
:103C10008CE992E00E94180847C983EA92E00E946A
:103C200018084AC9882D90E00596389EA001399E53
:103C3000500D11245B834A83CA0189579D4FD801D7
:103C400018962C9120FF4AC00E9458098A819B81B6
:103C500082579D4FF801208521FF43C00E945809DB
:103C60008A819B818B569D4FD80118962C9122FFFB
:103C70003BC00E9458098A819B8184569D4FF80160
:103C8000208523FF34C00E9458098A819B818D556D
:103C90009D4FD80118962C9124FF2CC00E945809E2
:103CA0008A819B8186559D4FF801208525FF25C07F
:103CB0000E9458098A819B818F549D4FD801189684
:103CC0002C9126FF1DC00E9458098A819B8188542F
:103CD0009D4FF801208527FFA2CFECC80E9418084D
:103CE000B5CF0E941808BCCF0E941808C4CF0E940C
:103CF0001808CBCF0E941808D3CF0E941808DACF3B
:103D00000E941808E2CF87E892E00E940F08F6C8E8
:103D10008EE892E00E940F08F9C885E992E00E94BF
:103D20000F08FCC88CE992E00E940F08FFC883EAE4
:103D300092E00E940F0802C9882D90E00596389EF7
:103D4000A001399E500D11245B834A83CA01895713
:103D50009D4FD80151962C9120FF4AC00E94050921
:103D60008A819B8182579D4FF801218921FF43C0A1
:103D70000E9405098A819B818B569D4FD8015196DF
:103D80002C9122FF3BC00E9405098A819B818456A9
:103D90009D4FF801218923FF34C00E9405098A81C3
:103DA0009B818D559D4FD80151962C9124FF2CC09D
:103DB0000E9405098A819B8186559D4FF8012189C2
:103DC00025FF25C00E9405098A819B818F549D4F44
:103DD000D80151962C9126FF1DC00E9405098A81A9
:103DE0009B8188549D4FF801218927FFA2CFA4C849
:103DF0000E940F08B5CF0E940F08BCCF0E940F0889
:103E0000C4CF0E940F08CBCF0E940F08D3CF0E94CF
:103E10000F08DACF0E940F08E2CFE199FECF9FBBD7
:103E20008EBBE09A99278DB30895262FE199FECF96
:103E30009FBB8EBBE09A01970DB2021631F02DBBED
:103E40000FB6F894E29AE19A0FBE0895262FE199F1
:103E5000FECF9FBB8EBB2DBB0FB6F894E29AE19AC2
:103E60000FBE0196089597FB072E16F4009407D015
:103E700077FD09D00E94501F07FC05D03EF49095B5
:103E800081959F4F0895709561957F4F0895EE0F2E
:103E9000FF1F0024001C0BBE0790F691E02D099433
:103EA000AA1BBB1B51E107C0AA1FBB1FA617B70760
:103EB00010F0A61BB70B881F991F5A95A9F780957C
:103EC0009095BC01CD0108950F931F93CF93DF937D
:103ED000869F8001879F100D969F100D1124C801A9
:103EE0000E94801FEC01009729F0A80170E060E0BB
:103EF0000E94B220CE01DF91CF911F910F910895C2
:103F00000F931F93CF93DF938230910510F482E0DB
:103F100090E0E091C904F091CA0430E020E0B0E004
:103F2000A0E0309799F42115310509F44AC0281B07
:103F3000390B24303105D8F58A819B8161157105D3
:103F400089F1FB0193838283FE0111C0408151817D
:103F50000281138148175907E0F04817590799F46F
:103F6000109761F012960C93129713961C93329649
:103F7000CF01DF91CF911F910F9108950093C90454
:103F80001093CA04F4CF2115310551F0421753079D
:103F900038F0A901DB019A01BD01DF01F801C1CFB1
:103FA000EF01F9CF9093CA048093C904CDCFFE01ED
:103FB000E20FF31F819391932250310939832883B3
:103FC000D7CF2091C7043091C804232B41F420910E
:103FD000490130914A013093C8042093C7042091CD
:103FE0004701309148012115310541F42DB73EB705
:103FF00040914B0150914C01241B350BE091C704BB
:10400000F091C804E217F307A0F42E1B3F0B28170A
:10401000390778F0AC014E5F5F4F2417350748F041
:104020004E0F5F1F5093C8044093C7048193919330
:104030009FCFF0E0E0E09CCFCF93DF930097E9F0D3
:10404000FC01329713821282A091C904B091CA0474
:10405000ED0130E020E01097A1F420813181820F42
:10406000931F2091C7043091C8042817390709F01D
:1040700061C0F093C804E093C704DF91CF91089525
:10408000EA01CE17DF07E8F54A815B819E01411501
:104090005105B1F7E901FB83EA8349915991C40FB6
:1040A000D51FEC17FD0761F4808191810296840F82
:1040B000951FE90199838883828193819B838A83F9
:1040C000F0E0E0E012968D919C9113970097B9F57E
:1040D0002D913C911197CD010296820F931F209153
:1040E000C7043091C8042817390739F6309751F5BD
:1040F0001092CA041092C904B093C804A093C704D4
:10410000BCCFD383C28340815181840F951FC817D0
:10411000D90761F44E5F5F4F88819981480F591F1D
:10412000518340838A819B8193838283211531054A
:1041300009F0B0CFF093CA04E093C9049ECFFD010B
:10414000DC01C0CF13821282D7CFFB01DC0104C097
:104150008D910190801921F441505040C8F7881B7F
:10416000990B0895DC0101C06D9341505040E0F778
:064170000895F894FFCF52
:104176001BFF1AFF19FF18FF17FF16FF15FF14FF85
:1041860013FF12FF11FF10FF0FFF0EFF0DFF0CFFB5
:104196000BFF0AFF09FF08FF07FF06FF05FF04FFE5
:1041A60003FF02FF01FF01420500000000000000BE
:1041B600000000000000000000CB04800034013243
:1041C6000130012E012C012A012801260124012299
:1041D6000120011E011C011A011801160114011209
:1041E6000110010E010C010A010801060104010279
:1041F600010001000000000806DB054F06B8058037
:0642060005C805B9050022
:00000001FF
